{
  "_format": "hh-sol-artifact-1",
  "contractName": "BountyNFT",
  "sourceName": "contracts/BountyNFT.sol",
  "abi": [
    {
      "inputs": [
        {
          "internalType": "string",
          "name": "_name",
          "type": "string"
        },
        {
          "internalType": "string",
          "name": "_symbol",
          "type": "string"
        }
      ],
      "stateMutability": "nonpayable",
      "type": "constructor"
    },
    {
      "anonymous": false,
      "inputs": [
        {
          "indexed": true,
          "internalType": "address",
          "name": "owner",
          "type": "address"
        },
        {
          "indexed": true,
          "internalType": "address",
          "name": "approved",
          "type": "address"
        },
        {
          "indexed": true,
          "internalType": "uint256",
          "name": "tokenId",
          "type": "uint256"
        }
      ],
      "name": "Approval",
      "type": "event"
    },
    {
      "anonymous": false,
      "inputs": [
        {
          "indexed": true,
          "internalType": "address",
          "name": "owner",
          "type": "address"
        },
        {
          "indexed": true,
          "internalType": "address",
          "name": "operator",
          "type": "address"
        },
        {
          "indexed": false,
          "internalType": "bool",
          "name": "approved",
          "type": "bool"
        }
      ],
      "name": "ApprovalForAll",
      "type": "event"
    },
    {
      "anonymous": false,
      "inputs": [
        {
          "indexed": true,
          "internalType": "address",
          "name": "from",
          "type": "address"
        },
        {
          "indexed": true,
          "internalType": "address",
          "name": "to",
          "type": "address"
        },
        {
          "indexed": true,
          "internalType": "uint256",
          "name": "tokenId",
          "type": "uint256"
        }
      ],
      "name": "Transfer",
      "type": "event"
    },
    {
      "anonymous": false,
      "inputs": [
        {
          "indexed": false,
          "internalType": "address",
          "name": "_from",
          "type": "address"
        },
        {
          "indexed": false,
          "internalType": "uint256",
          "name": "_amount",
          "type": "uint256"
        }
      ],
      "name": "TransferReceived",
      "type": "event"
    },
    {
      "anonymous": false,
      "inputs": [
        {
          "indexed": false,
          "internalType": "address",
          "name": "_from",
          "type": "address"
        },
        {
          "indexed": false,
          "internalType": "address",
          "name": "_destAddr",
          "type": "address"
        },
        {
          "indexed": false,
          "internalType": "uint256",
          "name": "_amount",
          "type": "uint256"
        }
      ],
      "name": "TransferSent",
      "type": "event"
    },
    {
      "inputs": [],
      "name": "_meritPoints",
      "outputs": [
        {
          "internalType": "uint256",
          "name": "",
          "type": "uint256"
        }
      ],
      "stateMutability": "view",
      "type": "function"
    },
    {
      "inputs": [],
      "name": "_price",
      "outputs": [
        {
          "internalType": "uint256",
          "name": "",
          "type": "uint256"
        }
      ],
      "stateMutability": "view",
      "type": "function"
    },
    {
      "inputs": [
        {
          "internalType": "address",
          "name": "to",
          "type": "address"
        },
        {
          "internalType": "uint256",
          "name": "tokenId",
          "type": "uint256"
        }
      ],
      "name": "approve",
      "outputs": [],
      "stateMutability": "nonpayable",
      "type": "function"
    },
    {
      "inputs": [],
      "name": "balance",
      "outputs": [
        {
          "internalType": "uint256",
          "name": "",
          "type": "uint256"
        }
      ],
      "stateMutability": "view",
      "type": "function"
    },
    {
      "inputs": [
        {
          "internalType": "address",
          "name": "owner",
          "type": "address"
        }
      ],
      "name": "balanceOf",
      "outputs": [
        {
          "internalType": "uint256",
          "name": "",
          "type": "uint256"
        }
      ],
      "stateMutability": "view",
      "type": "function"
    },
    {
      "inputs": [
        {
          "internalType": "uint256",
          "name": "tokenId",
          "type": "uint256"
        }
      ],
      "name": "getApproved",
      "outputs": [
        {
          "internalType": "address",
          "name": "",
          "type": "address"
        }
      ],
      "stateMutability": "view",
      "type": "function"
    },
    {
      "inputs": [
        {
          "internalType": "address",
          "name": "owner",
          "type": "address"
        },
        {
          "internalType": "address",
          "name": "operator",
          "type": "address"
        }
      ],
      "name": "isApprovedForAll",
      "outputs": [
        {
          "internalType": "bool",
          "name": "",
          "type": "bool"
        }
      ],
      "stateMutability": "view",
      "type": "function"
    },
    {
      "inputs": [],
      "name": "maxTokenIds",
      "outputs": [
        {
          "internalType": "uint256",
          "name": "",
          "type": "uint256"
        }
      ],
      "stateMutability": "view",
      "type": "function"
    },
    {
      "inputs": [
        {
          "internalType": "string",
          "name": "tokenURI",
          "type": "string"
        }
      ],
      "name": "mint",
      "outputs": [
        {
          "internalType": "uint256",
          "name": "",
          "type": "uint256"
        }
      ],
      "stateMutability": "nonpayable",
      "type": "function"
    },
    {
      "inputs": [],
      "name": "name",
      "outputs": [
        {
          "internalType": "string",
          "name": "",
          "type": "string"
        }
      ],
      "stateMutability": "view",
      "type": "function"
    },
    {
      "inputs": [],
      "name": "owner",
      "outputs": [
        {
          "internalType": "address",
          "name": "",
          "type": "address"
        }
      ],
      "stateMutability": "view",
      "type": "function"
    },
    {
      "inputs": [
        {
          "internalType": "uint256",
          "name": "tokenId",
          "type": "uint256"
        }
      ],
      "name": "ownerOf",
      "outputs": [
        {
          "internalType": "address",
          "name": "",
          "type": "address"
        }
      ],
      "stateMutability": "view",
      "type": "function"
    },
    {
      "inputs": [
        {
          "internalType": "address",
          "name": "from",
          "type": "address"
        },
        {
          "internalType": "address",
          "name": "to",
          "type": "address"
        },
        {
          "internalType": "uint256",
          "name": "tokenId",
          "type": "uint256"
        }
      ],
      "name": "safeTransferFrom",
      "outputs": [],
      "stateMutability": "nonpayable",
      "type": "function"
    },
    {
      "inputs": [
        {
          "internalType": "address",
          "name": "from",
          "type": "address"
        },
        {
          "internalType": "address",
          "name": "to",
          "type": "address"
        },
        {
          "internalType": "uint256",
          "name": "tokenId",
          "type": "uint256"
        },
        {
          "internalType": "bytes",
          "name": "data",
          "type": "bytes"
        }
      ],
      "name": "safeTransferFrom",
      "outputs": [],
      "stateMutability": "nonpayable",
      "type": "function"
    },
    {
      "inputs": [
        {
          "internalType": "address",
          "name": "operator",
          "type": "address"
        },
        {
          "internalType": "bool",
          "name": "approved",
          "type": "bool"
        }
      ],
      "name": "setApprovalForAll",
      "outputs": [],
      "stateMutability": "nonpayable",
      "type": "function"
    },
    {
      "inputs": [
        {
          "internalType": "bytes4",
          "name": "interfaceId",
          "type": "bytes4"
        }
      ],
      "name": "supportsInterface",
      "outputs": [
        {
          "internalType": "bool",
          "name": "",
          "type": "bool"
        }
      ],
      "stateMutability": "view",
      "type": "function"
    },
    {
      "inputs": [],
      "name": "symbol",
      "outputs": [
        {
          "internalType": "string",
          "name": "",
          "type": "string"
        }
      ],
      "stateMutability": "view",
      "type": "function"
    },
    {
      "inputs": [
        {
          "internalType": "uint256",
          "name": "tokenId",
          "type": "uint256"
        }
      ],
      "name": "tokenURI",
      "outputs": [
        {
          "internalType": "string",
          "name": "",
          "type": "string"
        }
      ],
      "stateMutability": "view",
      "type": "function"
    },
    {
      "inputs": [],
      "name": "token_address",
      "outputs": [
        {
          "internalType": "address",
          "name": "",
          "type": "address"
        }
      ],
      "stateMutability": "view",
      "type": "function"
    },
    {
      "inputs": [
        {
          "internalType": "contract IERC20",
          "name": "token",
          "type": "address"
        },
        {
          "internalType": "address",
          "name": "to",
          "type": "address"
        },
        {
          "internalType": "uint256",
          "name": "amount",
          "type": "uint256"
        }
      ],
      "name": "transferERC20",
      "outputs": [],
      "stateMutability": "nonpayable",
      "type": "function"
    },
    {
      "inputs": [
        {
          "internalType": "address",
          "name": "from",
          "type": "address"
        },
        {
          "internalType": "address",
          "name": "to",
          "type": "address"
        },
        {
          "internalType": "uint256",
          "name": "tokenId",
          "type": "uint256"
        }
      ],
      "name": "transferFrom",
      "outputs": [],
      "stateMutability": "nonpayable",
      "type": "function"
    },
    {
      "inputs": [
        {
          "internalType": "uint256",
          "name": "amount",
          "type": "uint256"
        },
        {
          "internalType": "address payable",
          "name": "destAddr",
          "type": "address"
        }
      ],
      "name": "withdraw",
      "outputs": [],
      "stateMutability": "nonpayable",
      "type": "function"
    },
    {
      "stateMutability": "payable",
      "type": "receive"
    }
  ],
  "bytecode": "0x6080604052655af3107a4000600b55612710600c553480156200002157600080fd5b5060405162003692380380620036928339818101604052810190620000479190620001e8565b8181816000908051906020019062000061929190620000c6565b5080600190805190602001906200007a929190620000c6565b50505033600760006101000a81548173ffffffffffffffffffffffffffffffffffffffff021916908373ffffffffffffffffffffffffffffffffffffffff1602179055505050620003cb565b828054620000d490620002f0565b90600052602060002090601f016020900481019282620000f8576000855562000144565b82601f106200011357805160ff191683800117855562000144565b8280016001018555821562000144579182015b828111156200014357825182559160200191906001019062000126565b5b50905062000153919062000157565b5090565b5b808211156200017257600081600090555060010162000158565b5090565b60006200018d620001878462000284565b6200025b565b905082815260208101848484011115620001a657600080fd5b620001b3848285620002ba565b509392505050565b600082601f830112620001cd57600080fd5b8151620001df84826020860162000176565b91505092915050565b60008060408385031215620001fc57600080fd5b600083015167ffffffffffffffff8111156200021757600080fd5b6200022585828601620001bb565b925050602083015167ffffffffffffffff8111156200024357600080fd5b6200025185828601620001bb565b9150509250929050565b6000620002676200027a565b905062000275828262000326565b919050565b6000604051905090565b600067ffffffffffffffff821115620002a257620002a16200038b565b5b620002ad82620003ba565b9050602081019050919050565b60005b83811015620002da578082015181840152602081019050620002bd565b83811115620002ea576000848401525b50505050565b600060028204905060018216806200030957607f821691505b6020821081141562000320576200031f6200035c565b5b50919050565b6200033182620003ba565b810181811067ffffffffffffffff821117156200035357620003526200038b565b5b80604052505050565b7f4e487b7100000000000000000000000000000000000000000000000000000000600052602260045260246000fd5b7f4e487b7100000000000000000000000000000000000000000000000000000000600052604160045260246000fd5b6000601f19601f8301169050919050565b6132b780620003db6000396000f3fe6080604052600436106101385760003560e01c806370a08231116100ab578063a22cb4651161006f578063a22cb46514610484578063b69ef8a8146104ad578063b88d4fde146104d8578063c87b56dd14610501578063d85d3d271461053e578063e985e9c51461057b57610191565b806370a082311461039d5780638c8e8fee146103da5780638da5cb5b1461040557806395d89b41146104305780639db5dbe41461045b57610191565b8063235b6ea1116100fd578063235b6ea11461028d57806323b872dd146102b85780633de81425146102e157806342842e0e1461030c5780635f769621146103355780636352211e1461036057610191565b8062f714ce1461019657806301ffc9a7146101bf57806306fdde03146101fc578063081812fc14610227578063095ea7b31461026457610191565b3661019157346008600082825461014f9190612aeb565b925050819055507ff1b03f708b9c39f453fe3f0cef84164c7d6f7df836df0796e1e9c2bce6ee397e33346040516101879291906127c0565b60405180910390a1005b600080fd5b3480156101a257600080fd5b506101bd60048036038101906101b8919061239f565b6105b8565b005b3480156101cb57600080fd5b506101e660048036038101906101e1919061226b565b61072c565b6040516101f391906127e9565b60405180910390f35b34801561020857600080fd5b5061021161080e565b60405161021e9190612804565b60405180910390f35b34801561023357600080fd5b5061024e6004803603810190610249919061234d565b6108a0565b60405161025b91906126eb565b60405180910390f35b34801561027057600080fd5b5061028b60048036038101906102869190612206565b6108e6565b005b34801561029957600080fd5b506102a26109fe565b6040516102af9190612a06565b60405180910390f35b3480156102c457600080fd5b506102df60048036038101906102da9190612100565b610a04565b005b3480156102ed57600080fd5b506102f6610a64565b6040516103039190612a06565b60405180910390f35b34801561031857600080fd5b50610333600480360381019061032e9190612100565b610a6a565b005b34801561034157600080fd5b5061034a610a8a565b6040516103579190612a06565b60405180910390f35b34801561036c57600080fd5b506103876004803603810190610382919061234d565b610a90565b60405161039491906126eb565b60405180910390f35b3480156103a957600080fd5b506103c460048036038101906103bf919061209b565b610b42565b6040516103d19190612a06565b60405180910390f35b3480156103e657600080fd5b506103ef610bfa565b6040516103fc91906126eb565b60405180910390f35b34801561041157600080fd5b5061041a610c20565b60405161042791906126eb565b60405180910390f35b34801561043c57600080fd5b50610445610c46565b6040516104529190612804565b60405180910390f35b34801561046757600080fd5b50610482600480360381019061047d91906122bd565b610cd8565b005b34801561049057600080fd5b506104ab60048036038101906104a691906121ca565b610f07565b005b3480156104b957600080fd5b506104c2610f1d565b6040516104cf9190612a06565b60405180910390f35b3480156104e457600080fd5b506104ff60048036038101906104fa919061214f565b610f23565b005b34801561050d57600080fd5b506105286004803603810190610523919061234d565b610f85565b6040516105359190612804565b60405180910390f35b34801561054a57600080fd5b506105656004803603810190610560919061230c565b611098565b6040516105729190612a06565b60405180910390f35b34801561058757600080fd5b506105a2600480360381019061059d91906120c4565b6110ce565b6040516105af91906127e9565b60405180910390f35b600760009054906101000a900473ffffffffffffffffffffffffffffffffffffffff1673ffffffffffffffffffffffffffffffffffffffff163373ffffffffffffffffffffffffffffffffffffffff1614610648576040517f08c379a000000000000000000000000000000000000000000000000000000000815260040161063f90612886565b60405180910390fd5b60085482111561068d576040517f08c379a0000000000000000000000000000000000000000000000000000000008152600401610684906128e6565b60405180910390fd5b8073ffffffffffffffffffffffffffffffffffffffff166108fc839081150290604051600060405180830381858888f193505050501580156106d3573d6000803e3d6000fd5b5081600860008282546106e69190612b72565b925050819055507ffda3a3e0e1479b43cb1c701f7576187f4c4ad80768d627387e00184302f7d88e33828460405161072093929190612706565b60405180910390a15050565b60007f80ac58cd000000000000000000000000000000000000000000000000000000007bffffffffffffffffffffffffffffffffffffffffffffffffffffffff1916827bffffffffffffffffffffffffffffffffffffffffffffffffffffffff191614806107f757507f5b5e139f000000000000000000000000000000000000000000000000000000007bffffffffffffffffffffffffffffffffffffffffffffffffffffffff1916827bffffffffffffffffffffffffffffffffffffffffffffffffffffffff1916145b80610807575061080682611162565b5b9050919050565b60606000805461081d90612cb6565b80601f016020809104026020016040519081016040528092919081815260200182805461084990612cb6565b80156108965780601f1061086b57610100808354040283529160200191610896565b820191906000526020600020905b81548152906001019060200180831161087957829003601f168201915b5050505050905090565b60006108ab826111cc565b6004600083815260200190815260200160002060009054906101000a900473ffffffffffffffffffffffffffffffffffffffff169050919050565b60006108f182610a90565b90508073ffffffffffffffffffffffffffffffffffffffff168373ffffffffffffffffffffffffffffffffffffffff161415610962576040517f08c379a0000000000000000000000000000000000000000000000000000000008152600401610959906129c6565b60405180910390fd5b8073ffffffffffffffffffffffffffffffffffffffff16610981611217565b73ffffffffffffffffffffffffffffffffffffffff1614806109b057506109af816109aa611217565b6110ce565b5b6109ef576040517f08c379a00000000000000000000000000000000000000000000000000000000081526004016109e690612966565b60405180910390fd5b6109f9838361121f565b505050565b600b5481565b610a15610a0f611217565b826112d8565b610a54576040517f08c379a0000000000000000000000000000000000000000000000000000000008152600401610a4b906129e6565b60405180910390fd5b610a5f83838361136d565b505050565b600d5481565b610a8583838360405180602001604052806000815250610f23565b505050565b600c5481565b6000806002600084815260200190815260200160002060009054906101000a900473ffffffffffffffffffffffffffffffffffffffff169050600073ffffffffffffffffffffffffffffffffffffffff168173ffffffffffffffffffffffffffffffffffffffff161415610b39576040517f08c379a0000000000000000000000000000000000000000000000000000000008152600401610b30906129a6565b60405180910390fd5b80915050919050565b60008073ffffffffffffffffffffffffffffffffffffffff168273ffffffffffffffffffffffffffffffffffffffff161415610bb3576040517f08c379a0000000000000000000000000000000000000000000000000000000008152600401610baa90612906565b60405180910390fd5b600360008373ffffffffffffffffffffffffffffffffffffffff1673ffffffffffffffffffffffffffffffffffffffff168152602001908152602001600020549050919050565b600960009054906101000a900473ffffffffffffffffffffffffffffffffffffffff1681565b600760009054906101000a900473ffffffffffffffffffffffffffffffffffffffff1681565b606060018054610c5590612cb6565b80601f0160208091040260200160405190810160405280929190818152602001828054610c8190612cb6565b8015610cce5780601f10610ca357610100808354040283529160200191610cce565b820191906000526020600020905b815481529060010190602001808311610cb157829003601f168201915b5050505050905090565b600760009054906101000a900473ffffffffffffffffffffffffffffffffffffffff1673ffffffffffffffffffffffffffffffffffffffff163373ffffffffffffffffffffffffffffffffffffffff1614610d68576040517f08c379a0000000000000000000000000000000000000000000000000000000008152600401610d5f90612886565b60405180910390fd5b60008373ffffffffffffffffffffffffffffffffffffffff166370a08231306040518263ffffffff1660e01b8152600401610da391906126eb565b60206040518083038186803b158015610dbb57600080fd5b505afa158015610dcf573d6000803e3d6000fd5b505050506040513d601f19601f82011682018060405250810190610df39190612376565b905080821115610e38576040517f08c379a0000000000000000000000000000000000000000000000000000000008152600401610e2f90612946565b60405180910390fd5b8373ffffffffffffffffffffffffffffffffffffffff1663a9059cbb84846040518363ffffffff1660e01b8152600401610e739291906127c0565b602060405180830381600087803b158015610e8d57600080fd5b505af1158015610ea1573d6000803e3d6000fd5b505050506040513d601f19601f82011682018060405250810190610ec59190612242565b507ffda3a3e0e1479b43cb1c701f7576187f4c4ad80768d627387e00184302f7d88e338484604051610ef99392919061273d565b60405180910390a150505050565b610f19610f12611217565b83836115d4565b5050565b60085481565b610f34610f2e611217565b836112d8565b610f73576040517f08c379a0000000000000000000000000000000000000000000000000000000008152600401610f6a906129e6565b60405180910390fd5b610f7f84848484611741565b50505050565b6060610f90826111cc565b6000600660008481526020019081526020016000208054610fb090612cb6565b80601f0160208091040260200160405190810160405280929190818152602001828054610fdc90612cb6565b80156110295780601f10610ffe57610100808354040283529160200191611029565b820191906000526020600020905b81548152906001019060200180831161100c57829003601f168201915b50505050509050600061103a61179d565b9050600081511415611050578192505050611093565b60008251111561108557808260405160200161106d9291906126c7565b60405160208183030381529060405292505050611093565b61108e846117b4565b925050505b919050565b6000806110a5600a61181c565b90506110b1338261182a565b6110bb8184611a04565b6110c5600a611a78565b80915050919050565b6000600560008473ffffffffffffffffffffffffffffffffffffffff1673ffffffffffffffffffffffffffffffffffffffff16815260200190815260200160002060008373ffffffffffffffffffffffffffffffffffffffff1673ffffffffffffffffffffffffffffffffffffffff16815260200190815260200160002060009054906101000a900460ff16905092915050565b60007f01ffc9a7000000000000000000000000000000000000000000000000000000007bffffffffffffffffffffffffffffffffffffffffffffffffffffffff1916827bffffffffffffffffffffffffffffffffffffffffffffffffffffffff1916149050919050565b6111d581611a8e565b611214576040517f08c379a000000000000000000000000000000000000000000000000000000000815260040161120b906129a6565b60405180910390fd5b50565b600033905090565b816004600083815260200190815260200160002060006101000a81548173ffffffffffffffffffffffffffffffffffffffff021916908373ffffffffffffffffffffffffffffffffffffffff160217905550808273ffffffffffffffffffffffffffffffffffffffff1661129283610a90565b73ffffffffffffffffffffffffffffffffffffffff167f8c5be1e5ebec7d5bd14f71427d1e84f3dd0314c0f7b2291e5b200ac8c7c3b92560405160405180910390a45050565b6000806112e483610a90565b90508073ffffffffffffffffffffffffffffffffffffffff168473ffffffffffffffffffffffffffffffffffffffff161480611326575061132581856110ce565b5b8061136457508373ffffffffffffffffffffffffffffffffffffffff1661134c846108a0565b73ffffffffffffffffffffffffffffffffffffffff16145b91505092915050565b8273ffffffffffffffffffffffffffffffffffffffff1661138d82610a90565b73ffffffffffffffffffffffffffffffffffffffff16146113e3576040517f08c379a00000000000000000000000000000000000000000000000000000000081526004016113da90612846565b60405180910390fd5b600073ffffffffffffffffffffffffffffffffffffffff168273ffffffffffffffffffffffffffffffffffffffff161415611453576040517f08c379a000000000000000000000000000000000000000000000000000000000815260040161144a906128a6565b60405180910390fd5b61145e838383611afa565b61146960008261121f565b6001600360008573ffffffffffffffffffffffffffffffffffffffff1673ffffffffffffffffffffffffffffffffffffffff16815260200190815260200160002060008282546114b99190612b72565b925050819055506001600360008473ffffffffffffffffffffffffffffffffffffffff1673ffffffffffffffffffffffffffffffffffffffff16815260200190815260200160002060008282546115109190612aeb565b92505081905550816002600083815260200190815260200160002060006101000a81548173ffffffffffffffffffffffffffffffffffffffff021916908373ffffffffffffffffffffffffffffffffffffffff160217905550808273ffffffffffffffffffffffffffffffffffffffff168473ffffffffffffffffffffffffffffffffffffffff167fddf252ad1be2c89b69c2b068fc378daa952ba7f163c4a11628f55a4df523b3ef60405160405180910390a46115cf838383611aff565b505050565b8173ffffffffffffffffffffffffffffffffffffffff168373ffffffffffffffffffffffffffffffffffffffff161415611643576040517f08c379a000000000000000000000000000000000000000000000000000000000815260040161163a906128c6565b60405180910390fd5b80600560008573ffffffffffffffffffffffffffffffffffffffff1673ffffffffffffffffffffffffffffffffffffffff16815260200190815260200160002060008473ffffffffffffffffffffffffffffffffffffffff1673ffffffffffffffffffffffffffffffffffffffff16815260200190815260200160002060006101000a81548160ff0219169083151502179055508173ffffffffffffffffffffffffffffffffffffffff168373ffffffffffffffffffffffffffffffffffffffff167f17307eab39ab6107e8899845ad3d59bd9653f200f220920489ca2b5937696c318360405161173491906127e9565b60405180910390a3505050565b61174c84848461136d565b61175884848484611b04565b611797576040517f08c379a000000000000000000000000000000000000000000000000000000000815260040161178e90612826565b60405180910390fd5b50505050565b606060405180602001604052806000815250905090565b60606117bf826111cc565b60006117c961179d565b905060008151116117e95760405180602001604052806000815250611814565b806117f384611c9b565b6040516020016118049291906126c7565b6040516020818303038152906040525b915050919050565b600081600001549050919050565b600073ffffffffffffffffffffffffffffffffffffffff168273ffffffffffffffffffffffffffffffffffffffff16141561189a576040517f08c379a000000000000000000000000000000000000000000000000000000000815260040161189190612986565b60405180910390fd5b6118a381611a8e565b156118e3576040517f08c379a00000000000000000000000000000000000000000000000000000000081526004016118da90612866565b60405180910390fd5b6118ef60008383611afa565b6001600360008473ffffffffffffffffffffffffffffffffffffffff1673ffffffffffffffffffffffffffffffffffffffff168152602001908152602001600020600082825461193f9190612aeb565b92505081905550816002600083815260200190815260200160002060006101000a81548173ffffffffffffffffffffffffffffffffffffffff021916908373ffffffffffffffffffffffffffffffffffffffff160217905550808273ffffffffffffffffffffffffffffffffffffffff16600073ffffffffffffffffffffffffffffffffffffffff167fddf252ad1be2c89b69c2b068fc378daa952ba7f163c4a11628f55a4df523b3ef60405160405180910390a4611a0060008383611aff565b5050565b611a0d82611a8e565b611a4c576040517f08c379a0000000000000000000000000000000000000000000000000000000008152600401611a4390612926565b60405180910390fd5b80600660008481526020019081526020016000209080519060200190611a73929190611e6b565b505050565b6001816000016000828254019250508190555050565b60008073ffffffffffffffffffffffffffffffffffffffff166002600084815260200190815260200160002060009054906101000a900473ffffffffffffffffffffffffffffffffffffffff1673ffffffffffffffffffffffffffffffffffffffff1614159050919050565b505050565b505050565b6000611b258473ffffffffffffffffffffffffffffffffffffffff16611e48565b15611c8e578373ffffffffffffffffffffffffffffffffffffffff1663150b7a02611b4e611217565b8786866040518563ffffffff1660e01b8152600401611b709493929190612774565b602060405180830381600087803b158015611b8a57600080fd5b505af1925050508015611bbb57506040513d601f19601f82011682018060405250810190611bb89190612294565b60015b611c3e573d8060008114611beb576040519150601f19603f3d011682016040523d82523d6000602084013e611bf0565b606091505b50600081511415611c36576040517f08c379a0000000000000000000000000000000000000000000000000000000008152600401611c2d90612826565b60405180910390fd5b805181602001fd5b63150b7a0260e01b7bffffffffffffffffffffffffffffffffffffffffffffffffffffffff1916817bffffffffffffffffffffffffffffffffffffffffffffffffffffffff191614915050611c93565b600190505b949350505050565b60606000821415611ce3576040518060400160405280600181526020017f30000000000000000000000000000000000000000000000000000000000000008152509050611e43565b600082905060005b60008214611d15578080611cfe90612d19565b915050600a82611d0e9190612b41565b9150611ceb565b60008167ffffffffffffffff811115611d57577f4e487b7100000000000000000000000000000000000000000000000000000000600052604160045260246000fd5b6040519080825280601f01601f191660200182016040528015611d895781602001600182028036833780820191505090505b5090505b60008514611e3c57600182611da29190612b72565b9150600a85611db19190612d62565b6030611dbd9190612aeb565b60f81b818381518110611df9577f4e487b7100000000000000000000000000000000000000000000000000000000600052603260045260246000fd5b60200101907effffffffffffffffffffffffffffffffffffffffffffffffffffffffffffff1916908160001a905350600a85611e359190612b41565b9450611d8d565b8093505050505b919050565b6000808273ffffffffffffffffffffffffffffffffffffffff163b119050919050565b828054611e7790612cb6565b90600052602060002090601f016020900481019282611e995760008555611ee0565b82601f10611eb257805160ff1916838001178555611ee0565b82800160010185558215611ee0579182015b82811115611edf578251825591602001919060010190611ec4565b5b509050611eed9190611ef1565b5090565b5b80821115611f0a576000816000905550600101611ef2565b5090565b6000611f21611f1c84612a46565b612a21565b905082815260208101848484011115611f3957600080fd5b611f44848285612c74565b509392505050565b6000611f5f611f5a84612a77565b612a21565b905082815260208101848484011115611f7757600080fd5b611f82848285612c74565b509392505050565b600081359050611f99816131f7565b92915050565b600081359050611fae8161320e565b92915050565b600081359050611fc381613225565b92915050565b600081519050611fd881613225565b92915050565b600081359050611fed8161323c565b92915050565b6000815190506120028161323c565b92915050565b600082601f83011261201957600080fd5b8135612029848260208601611f0e565b91505092915050565b60008135905061204181613253565b92915050565b600082601f83011261205857600080fd5b8135612068848260208601611f4c565b91505092915050565b6000813590506120808161326a565b92915050565b6000815190506120958161326a565b92915050565b6000602082840312156120ad57600080fd5b60006120bb84828501611f8a565b91505092915050565b600080604083850312156120d757600080fd5b60006120e585828601611f8a565b92505060206120f685828601611f8a565b9150509250929050565b60008060006060848603121561211557600080fd5b600061212386828701611f8a565b935050602061213486828701611f8a565b925050604061214586828701612071565b9150509250925092565b6000806000806080858703121561216557600080fd5b600061217387828801611f8a565b945050602061218487828801611f8a565b935050604061219587828801612071565b925050606085013567ffffffffffffffff8111156121b257600080fd5b6121be87828801612008565b91505092959194509250565b600080604083850312156121dd57600080fd5b60006121eb85828601611f8a565b92505060206121fc85828601611fb4565b9150509250929050565b6000806040838503121561221957600080fd5b600061222785828601611f8a565b925050602061223885828601612071565b9150509250929050565b60006020828403121561225457600080fd5b600061226284828501611fc9565b91505092915050565b60006020828403121561227d57600080fd5b600061228b84828501611fde565b91505092915050565b6000602082840312156122a657600080fd5b60006122b484828501611ff3565b91505092915050565b6000806000606084860312156122d257600080fd5b60006122e086828701612032565b93505060206122f186828701611f8a565b925050604061230286828701612071565b9150509250925092565b60006020828403121561231e57600080fd5b600082013567ffffffffffffffff81111561233857600080fd5b61234484828501612047565b91505092915050565b60006020828403121561235f57600080fd5b600061236d84828501612071565b91505092915050565b60006020828403121561238857600080fd5b600061239684828501612086565b91505092915050565b600080604083850312156123b257600080fd5b60006123c085828601612071565b92505060206123d185828601611f9f565b9150509250929050565b6123e481612c3e565b82525050565b6123f381612ba6565b82525050565b61240281612bca565b82525050565b600061241382612aa8565b61241d8185612abe565b935061242d818560208601612c83565b61243681612e4f565b840191505092915050565b600061244c82612ab3565b6124568185612acf565b9350612466818560208601612c83565b61246f81612e4f565b840191505092915050565b600061248582612ab3565b61248f8185612ae0565b935061249f818560208601612c83565b80840191505092915050565b60006124b8603283612acf565b91506124c382612e60565b604082019050919050565b60006124db602583612acf565b91506124e682612eaf565b604082019050919050565b60006124fe601c83612acf565b915061250982612efe565b602082019050919050565b6000612521601d83612acf565b915061252c82612f27565b602082019050919050565b6000612544602483612acf565b915061254f82612f50565b604082019050919050565b6000612567601983612acf565b915061257282612f9f565b602082019050919050565b600061258a601283612acf565b915061259582612fc8565b602082019050919050565b60006125ad602983612acf565b91506125b882612ff1565b604082019050919050565b60006125d0602e83612acf565b91506125db82613040565b604082019050919050565b60006125f3600e83612acf565b91506125fe8261308f565b602082019050919050565b6000612616603e83612acf565b9150612621826130b8565b604082019050919050565b6000612639602083612acf565b915061264482613107565b602082019050919050565b600061265c601883612acf565b915061266782613130565b602082019050919050565b600061267f602183612acf565b915061268a82613159565b604082019050919050565b60006126a2602e83612acf565b91506126ad826131a8565b604082019050919050565b6126c181612c34565b82525050565b60006126d3828561247a565b91506126df828461247a565b91508190509392505050565b600060208201905061270060008301846123ea565b92915050565b600060608201905061271b60008301866123ea565b61272860208301856123db565b61273560408301846126b8565b949350505050565b600060608201905061275260008301866123ea565b61275f60208301856123ea565b61276c60408301846126b8565b949350505050565b600060808201905061278960008301876123ea565b61279660208301866123ea565b6127a360408301856126b8565b81810360608301526127b58184612408565b905095945050505050565b60006040820190506127d560008301856123ea565b6127e260208301846126b8565b9392505050565b60006020820190506127fe60008301846123f9565b92915050565b6000602082019050818103600083015261281e8184612441565b905092915050565b6000602082019050818103600083015261283f816124ab565b9050919050565b6000602082019050818103600083015261285f816124ce565b9050919050565b6000602082019050818103600083015261287f816124f1565b9050919050565b6000602082019050818103600083015261289f81612514565b9050919050565b600060208201905081810360008301526128bf81612537565b9050919050565b600060208201905081810360008301526128df8161255a565b9050919050565b600060208201905081810360008301526128ff8161257d565b9050919050565b6000602082019050818103600083015261291f816125a0565b9050919050565b6000602082019050818103600083015261293f816125c3565b9050919050565b6000602082019050818103600083015261295f816125e6565b9050919050565b6000602082019050818103600083015261297f81612609565b9050919050565b6000602082019050818103600083015261299f8161262c565b9050919050565b600060208201905081810360008301526129bf8161264f565b9050919050565b600060208201905081810360008301526129df81612672565b9050919050565b600060208201905081810360008301526129ff81612695565b9050919050565b6000602082019050612a1b60008301846126b8565b92915050565b6000612a2b612a3c565b9050612a378282612ce8565b919050565b6000604051905090565b600067ffffffffffffffff821115612a6157612a60612e20565b5b612a6a82612e4f565b9050602081019050919050565b600067ffffffffffffffff821115612a9257612a91612e20565b5b612a9b82612e4f565b9050602081019050919050565b600081519050919050565b600081519050919050565b600082825260208201905092915050565b600082825260208201905092915050565b600081905092915050565b6000612af682612c34565b9150612b0183612c34565b9250827fffffffffffffffffffffffffffffffffffffffffffffffffffffffffffffffff03821115612b3657612b35612d93565b5b828201905092915050565b6000612b4c82612c34565b9150612b5783612c34565b925082612b6757612b66612dc2565b5b828204905092915050565b6000612b7d82612c34565b9150612b8883612c34565b925082821015612b9b57612b9a612d93565b5b828203905092915050565b6000612bb182612c14565b9050919050565b6000612bc382612c14565b9050919050565b60008115159050919050565b60007fffffffff0000000000000000000000000000000000000000000000000000000082169050919050565b6000612c0d82612ba6565b9050919050565b600073ffffffffffffffffffffffffffffffffffffffff82169050919050565b6000819050919050565b6000612c4982612c50565b9050919050565b6000612c5b82612c62565b9050919050565b6000612c6d82612c14565b9050919050565b82818337600083830152505050565b60005b83811015612ca1578082015181840152602081019050612c86565b83811115612cb0576000848401525b50505050565b60006002820490506001821680612cce57607f821691505b60208210811415612ce257612ce1612df1565b5b50919050565b612cf182612e4f565b810181811067ffffffffffffffff82111715612d1057612d0f612e20565b5b80604052505050565b6000612d2482612c34565b91507fffffffffffffffffffffffffffffffffffffffffffffffffffffffffffffffff821415612d5757612d56612d93565b5b600182019050919050565b6000612d6d82612c34565b9150612d7883612c34565b925082612d8857612d87612dc2565b5b828206905092915050565b7f4e487b7100000000000000000000000000000000000000000000000000000000600052601160045260246000fd5b7f4e487b7100000000000000000000000000000000000000000000000000000000600052601260045260246000fd5b7f4e487b7100000000000000000000000000000000000000000000000000000000600052602260045260246000fd5b7f4e487b7100000000000000000000000000000000000000000000000000000000600052604160045260246000fd5b6000601f19601f8301169050919050565b7f4552433732313a207472616e7366657220746f206e6f6e20455243373231526560008201527f63656976657220696d706c656d656e7465720000000000000000000000000000602082015250565b7f4552433732313a207472616e736665722066726f6d20696e636f72726563742060008201527f6f776e6572000000000000000000000000000000000000000000000000000000602082015250565b7f4552433732313a20746f6b656e20616c7265616479206d696e74656400000000600082015250565b7f4f6e6c79206f776e65722063616e2077697468647261772066756e6473000000600082015250565b7f4552433732313a207472616e7366657220746f20746865207a65726f2061646460008201527f7265737300000000000000000000000000000000000000000000000000000000602082015250565b7f4552433732313a20617070726f766520746f2063616c6c657200000000000000600082015250565b7f496e73756666696369656e742066756e64730000000000000000000000000000600082015250565b7f4552433732313a2061646472657373207a65726f206973206e6f74206120766160008201527f6c6964206f776e65720000000000000000000000000000000000000000000000602082015250565b7f45524337323155524953746f726167653a2055524920736574206f66206e6f6e60008201527f6578697374656e7420746f6b656e000000000000000000000000000000000000602082015250565b7f62616c616e6365206973206c6f77000000000000000000000000000000000000600082015250565b7f4552433732313a20617070726f76652063616c6c6572206973206e6f7420746f60008201527f6b656e206f776e6572206e6f7220617070726f76656420666f7220616c6c0000602082015250565b7f4552433732313a206d696e7420746f20746865207a65726f2061646472657373600082015250565b7f4552433732313a20696e76616c696420746f6b656e2049440000000000000000600082015250565b7f4552433732313a20617070726f76616c20746f2063757272656e74206f776e6560008201527f7200000000000000000000000000000000000000000000000000000000000000602082015250565b7f4552433732313a2063616c6c6572206973206e6f7420746f6b656e206f776e6560008201527f72206e6f7220617070726f766564000000000000000000000000000000000000602082015250565b61320081612ba6565b811461320b57600080fd5b50565b61321781612bb8565b811461322257600080fd5b50565b61322e81612bca565b811461323957600080fd5b50565b61324581612bd6565b811461325057600080fd5b50565b61325c81612c02565b811461326757600080fd5b50565b61327381612c34565b811461327e57600080fd5b5056fea264697066735822122002a03ea092cb43ba8e75728a3145fc7a2232cefb56a5971ce70c13245386172464736f6c63430008020033",
  "linkReferences": {},
  "deployedLinkReferences": {}
}