{
  "_format": "hh-sol-artifact-1",
  "contractName": "BountyNFTFactory",
  "sourceName": "contracts/BountyNFTFactory.sol",
  "abi": [
    {
      "inputs": [
        {
          "internalType": "string",
          "name": "_name",
          "type": "string"
        },
        {
          "internalType": "string",
          "name": "_symbol",
          "type": "string"
        }
      ],
      "stateMutability": "nonpayable",
      "type": "constructor"
    },
    {
      "anonymous": false,
      "inputs": [
        {
          "indexed": true,
          "internalType": "address",
          "name": "owner",
          "type": "address"
        },
        {
          "indexed": true,
          "internalType": "address",
          "name": "approved",
          "type": "address"
        },
        {
          "indexed": true,
          "internalType": "uint256",
          "name": "tokenId",
          "type": "uint256"
        }
      ],
      "name": "Approval",
      "type": "event"
    },
    {
      "anonymous": false,
      "inputs": [
        {
          "indexed": true,
          "internalType": "address",
          "name": "owner",
          "type": "address"
        },
        {
          "indexed": true,
          "internalType": "address",
          "name": "operator",
          "type": "address"
        },
        {
          "indexed": false,
          "internalType": "bool",
          "name": "approved",
          "type": "bool"
        }
      ],
      "name": "ApprovalForAll",
      "type": "event"
    },
    {
      "anonymous": false,
      "inputs": [
        {
          "indexed": true,
          "internalType": "address",
          "name": "_createdBy",
          "type": "address"
        },
        {
          "indexed": true,
          "internalType": "uint256",
          "name": "_id",
          "type": "uint256"
        },
        {
          "indexed": false,
          "internalType": "uint256",
          "name": "_value",
          "type": "uint256"
        }
      ],
      "name": "MintNewBounty",
      "type": "event"
    },
    {
      "anonymous": false,
      "inputs": [
        {
          "indexed": true,
          "internalType": "address",
          "name": "from",
          "type": "address"
        },
        {
          "indexed": true,
          "internalType": "address",
          "name": "to",
          "type": "address"
        },
        {
          "indexed": true,
          "internalType": "uint256",
          "name": "tokenId",
          "type": "uint256"
        }
      ],
      "name": "Transfer",
      "type": "event"
    },
    {
      "anonymous": false,
      "inputs": [
        {
          "indexed": false,
          "internalType": "address",
          "name": "_from",
          "type": "address"
        },
        {
          "indexed": false,
          "internalType": "uint256",
          "name": "_amount",
          "type": "uint256"
        }
      ],
      "name": "TransferReceived",
      "type": "event"
    },
    {
      "anonymous": false,
      "inputs": [
        {
          "indexed": false,
          "internalType": "address",
          "name": "_from",
          "type": "address"
        },
        {
          "indexed": false,
          "internalType": "address",
          "name": "_destAddr",
          "type": "address"
        },
        {
          "indexed": false,
          "internalType": "uint256",
          "name": "_amount",
          "type": "uint256"
        }
      ],
      "name": "TransferSent",
      "type": "event"
    },
    {
      "inputs": [],
      "name": "_price",
      "outputs": [
        {
          "internalType": "uint256",
          "name": "",
          "type": "uint256"
        }
      ],
      "stateMutability": "view",
      "type": "function"
    },
    {
      "inputs": [
        {
          "internalType": "uint256",
          "name": "",
          "type": "uint256"
        }
      ],
      "name": "allMintedBounties",
      "outputs": [
        {
          "internalType": "address",
          "name": "bountyOwner",
          "type": "address"
        },
        {
          "internalType": "uint256",
          "name": "NFT_ID",
          "type": "uint256"
        },
        {
          "internalType": "string",
          "name": "title",
          "type": "string"
        },
        {
          "internalType": "uint256",
          "name": "value",
          "type": "uint256"
        },
        {
          "internalType": "address",
          "name": "erc20tokenAddress",
          "type": "address"
        },
        {
          "internalType": "string",
          "name": "erc20tokenSymbol",
          "type": "string"
        },
        {
          "internalType": "string",
          "name": "imageURI",
          "type": "string"
        }
      ],
      "stateMutability": "view",
      "type": "function"
    },
    {
      "inputs": [
        {
          "internalType": "address",
          "name": "to",
          "type": "address"
        },
        {
          "internalType": "uint256",
          "name": "tokenId",
          "type": "uint256"
        }
      ],
      "name": "approve",
      "outputs": [],
      "stateMutability": "nonpayable",
      "type": "function"
    },
    {
      "inputs": [],
      "name": "balance",
      "outputs": [
        {
          "internalType": "uint256",
          "name": "",
          "type": "uint256"
        }
      ],
      "stateMutability": "view",
      "type": "function"
    },
    {
      "inputs": [
        {
          "internalType": "address",
          "name": "owner",
          "type": "address"
        }
      ],
      "name": "balanceOf",
      "outputs": [
        {
          "internalType": "uint256",
          "name": "",
          "type": "uint256"
        }
      ],
      "stateMutability": "view",
      "type": "function"
    },
    {
      "inputs": [
        {
          "internalType": "uint256",
          "name": "",
          "type": "uint256"
        }
      ],
      "name": "bounties",
      "outputs": [
        {
          "internalType": "address",
          "name": "bountyOwner",
          "type": "address"
        },
        {
          "internalType": "uint256",
          "name": "NFT_ID",
          "type": "uint256"
        },
        {
          "internalType": "string",
          "name": "title",
          "type": "string"
        },
        {
          "internalType": "uint256",
          "name": "value",
          "type": "uint256"
        },
        {
          "internalType": "address",
          "name": "erc20tokenAddress",
          "type": "address"
        },
        {
          "internalType": "string",
          "name": "erc20tokenSymbol",
          "type": "string"
        },
        {
          "internalType": "string",
          "name": "imageURI",
          "type": "string"
        }
      ],
      "stateMutability": "view",
      "type": "function"
    },
    {
      "inputs": [
        {
          "internalType": "bytes32",
          "name": "",
          "type": "bytes32"
        }
      ],
      "name": "bountyIdToBountyOwner",
      "outputs": [
        {
          "internalType": "address",
          "name": "",
          "type": "address"
        }
      ],
      "stateMutability": "view",
      "type": "function"
    },
    {
      "inputs": [
        {
          "internalType": "bytes32",
          "name": "",
          "type": "bytes32"
        }
      ],
      "name": "bountyIdToSmartContractAddress",
      "outputs": [
        {
          "internalType": "address",
          "name": "",
          "type": "address"
        }
      ],
      "stateMutability": "view",
      "type": "function"
    },
    {
      "inputs": [
        {
          "internalType": "address",
          "name": "_newBountyOwner",
          "type": "address"
        },
        {
          "internalType": "string",
          "name": "_title",
          "type": "string"
        },
        {
          "internalType": "uint256",
          "name": "_value",
          "type": "uint256"
        },
        {
          "internalType": "address",
          "name": "_erc20tokenAddress",
          "type": "address"
        },
        {
          "internalType": "string",
          "name": "_erc20tokenSymbol",
          "type": "string"
        },
        {
          "internalType": "string",
          "name": "_imageURI",
          "type": "string"
        }
      ],
      "name": "createBounty",
      "outputs": [],
      "stateMutability": "nonpayable",
      "type": "function"
    },
    {
      "inputs": [
        {
          "internalType": "uint256",
          "name": "_amount",
          "type": "uint256"
        },
        {
          "internalType": "contract IERC20",
          "name": "token",
          "type": "address"
        }
      ],
      "name": "deposit",
      "outputs": [],
      "stateMutability": "payable",
      "type": "function"
    },
    {
      "inputs": [
        {
          "internalType": "uint256",
          "name": "tokenId",
          "type": "uint256"
        }
      ],
      "name": "getApproved",
      "outputs": [
        {
          "internalType": "address",
          "name": "",
          "type": "address"
        }
      ],
      "stateMutability": "view",
      "type": "function"
    },
    {
      "inputs": [
        {
          "internalType": "address",
          "name": "owner",
          "type": "address"
        },
        {
          "internalType": "address",
          "name": "operator",
          "type": "address"
        }
      ],
      "name": "isApprovedForAll",
      "outputs": [
        {
          "internalType": "bool",
          "name": "",
          "type": "bool"
        }
      ],
      "stateMutability": "view",
      "type": "function"
    },
    {
      "inputs": [],
      "name": "maxTokenIds",
      "outputs": [
        {
          "internalType": "uint256",
          "name": "",
          "type": "uint256"
        }
      ],
      "stateMutability": "view",
      "type": "function"
    },
    {
      "inputs": [
        {
          "internalType": "string",
          "name": "tokenURI",
          "type": "string"
        }
      ],
      "name": "mint",
      "outputs": [
        {
          "internalType": "uint256",
          "name": "",
          "type": "uint256"
        }
      ],
      "stateMutability": "nonpayable",
      "type": "function"
    },
    {
      "inputs": [],
      "name": "name",
      "outputs": [
        {
          "internalType": "string",
          "name": "",
          "type": "string"
        }
      ],
      "stateMutability": "view",
      "type": "function"
    },
    {
      "inputs": [],
      "name": "owner",
      "outputs": [
        {
          "internalType": "address",
          "name": "",
          "type": "address"
        }
      ],
      "stateMutability": "view",
      "type": "function"
    },
    {
      "inputs": [
        {
          "internalType": "uint256",
          "name": "tokenId",
          "type": "uint256"
        }
      ],
      "name": "ownerOf",
      "outputs": [
        {
          "internalType": "address",
          "name": "",
          "type": "address"
        }
      ],
      "stateMutability": "view",
      "type": "function"
    },
    {
      "inputs": [
        {
          "internalType": "address",
          "name": "from",
          "type": "address"
        },
        {
          "internalType": "address",
          "name": "to",
          "type": "address"
        },
        {
          "internalType": "uint256",
          "name": "tokenId",
          "type": "uint256"
        }
      ],
      "name": "safeTransferFrom",
      "outputs": [],
      "stateMutability": "nonpayable",
      "type": "function"
    },
    {
      "inputs": [
        {
          "internalType": "address",
          "name": "from",
          "type": "address"
        },
        {
          "internalType": "address",
          "name": "to",
          "type": "address"
        },
        {
          "internalType": "uint256",
          "name": "tokenId",
          "type": "uint256"
        },
        {
          "internalType": "bytes",
          "name": "data",
          "type": "bytes"
        }
      ],
      "name": "safeTransferFrom",
      "outputs": [],
      "stateMutability": "nonpayable",
      "type": "function"
    },
    {
      "inputs": [
        {
          "internalType": "address",
          "name": "operator",
          "type": "address"
        },
        {
          "internalType": "bool",
          "name": "approved",
          "type": "bool"
        }
      ],
      "name": "setApprovalForAll",
      "outputs": [],
      "stateMutability": "nonpayable",
      "type": "function"
    },
    {
      "inputs": [
        {
          "internalType": "bytes4",
          "name": "interfaceId",
          "type": "bytes4"
        }
      ],
      "name": "supportsInterface",
      "outputs": [
        {
          "internalType": "bool",
          "name": "",
          "type": "bool"
        }
      ],
      "stateMutability": "view",
      "type": "function"
    },
    {
      "inputs": [],
      "name": "symbol",
      "outputs": [
        {
          "internalType": "string",
          "name": "",
          "type": "string"
        }
      ],
      "stateMutability": "view",
      "type": "function"
    },
    {
      "inputs": [
        {
          "internalType": "uint256",
          "name": "tokenId",
          "type": "uint256"
        }
      ],
      "name": "tokenURI",
      "outputs": [
        {
          "internalType": "string",
          "name": "",
          "type": "string"
        }
      ],
      "stateMutability": "view",
      "type": "function"
    },
    {
      "inputs": [
        {
          "internalType": "contract IERC20",
          "name": "token",
          "type": "address"
        },
        {
          "internalType": "address",
          "name": "to",
          "type": "address"
        },
        {
          "internalType": "uint256",
          "name": "amount",
          "type": "uint256"
        },
        {
          "internalType": "uint256",
          "name": "bountyId",
          "type": "uint256"
        }
      ],
      "name": "transferERC20",
      "outputs": [],
      "stateMutability": "nonpayable",
      "type": "function"
    },
    {
      "inputs": [
        {
          "internalType": "address",
          "name": "from",
          "type": "address"
        },
        {
          "internalType": "address",
          "name": "to",
          "type": "address"
        },
        {
          "internalType": "uint256",
          "name": "tokenId",
          "type": "uint256"
        }
      ],
      "name": "transferFrom",
      "outputs": [],
      "stateMutability": "nonpayable",
      "type": "function"
    },
    {
      "inputs": [
        {
          "internalType": "uint256",
          "name": "amount",
          "type": "uint256"
        },
        {
          "internalType": "address payable",
          "name": "destAddr",
          "type": "address"
        }
      ],
      "name": "withdraw",
      "outputs": [],
      "stateMutability": "nonpayable",
      "type": "function"
    }
  ],
  "bytecode": "0x6080604052655af3107a4000600c55612710600d553480156200002157600080fd5b50604051620043e6380380620043e68339818101604052810190620000479190620001e8565b8181816000908051906020019062000061929190620000c6565b5080600190805190602001906200007a929190620000c6565b50505033600760006101000a81548173ffffffffffffffffffffffffffffffffffffffff021916908373ffffffffffffffffffffffffffffffffffffffff1602179055505050620003cb565b828054620000d490620002f0565b90600052602060002090601f016020900481019282620000f8576000855562000144565b82601f106200011357805160ff191683800117855562000144565b8280016001018555821562000144579182015b828111156200014357825182559160200191906001019062000126565b5b50905062000153919062000157565b5090565b5b808211156200017257600081600090555060010162000158565b5090565b60006200018d620001878462000284565b6200025b565b905082815260208101848484011115620001a657600080fd5b620001b3848285620002ba565b509392505050565b600082601f830112620001cd57600080fd5b8151620001df84826020860162000176565b91505092915050565b60008060408385031215620001fc57600080fd5b600083015167ffffffffffffffff8111156200021757600080fd5b6200022585828601620001bb565b925050602083015167ffffffffffffffff8111156200024357600080fd5b6200025185828601620001bb565b9150509250929050565b6000620002676200027a565b905062000275828262000326565b919050565b6000604051905090565b600067ffffffffffffffff821115620002a257620002a16200038b565b5b620002ad82620003ba565b9050602081019050919050565b60005b83811015620002da578082015181840152602081019050620002bd565b83811115620002ea576000848401525b50505050565b600060028204905060018216806200030957607f821691505b6020821081141562000320576200031f6200035c565b5b50919050565b6200033182620003ba565b810181811067ffffffffffffffff821117156200035357620003526200038b565b5b80604052505050565b7f4e487b7100000000000000000000000000000000000000000000000000000000600052602260045260246000fd5b7f4e487b7100000000000000000000000000000000000000000000000000000000600052604160045260246000fd5b6000601f19601f8301169050919050565b61400b80620003db6000396000f3fe6080604052600436106101805760003560e01c806370a08231116100d1578063b88d4fde1161008a578063d85d3d2711610064578063d85d3d271461059c578063dc2f8744146105d9578063e2b73bb41461061c578063e985e9c51461065957610180565b8063b88d4fde146104f9578063c87b56dd14610522578063cf27ab071461055f57610180565b806370a08231146103cf5780638da5cb5b1461040c57806395d89b4114610437578063a22cb46514610462578063a82173f31461048b578063b69ef8a8146104ce57610180565b8063235b6ea11161013e57806355a2ba681161011857806355a2ba68146103225780635f7696211461034b5780636352211e146103765780636e553f65146103b357610180565b8063235b6ea1146102a557806323b872dd146102d057806342842e0e146102f957610180565b8062f714ce1461018557806301ffc9a7146101ae57806306fdde03146101eb578063081812fc14610216578063095ea7b314610253578063154611c01461027c575b600080fd5b34801561019157600080fd5b506101ac60048036038101906101a79190612f80565b610696565b005b3480156101ba57600080fd5b506101d560048036038101906101d09190612e38565b61080a565b6040516101e291906134ad565b60405180910390f35b3480156101f757600080fd5b506102006108ec565b60405161020d91906134c8565b60405180910390f35b34801561022257600080fd5b5061023d60048036038101906102389190612f2e565b61097e565b60405161024a919061332b565b60405180910390f35b34801561025f57600080fd5b5061027a60048036038101906102759190612daa565b6109c4565b005b34801561028857600080fd5b506102a3600480360381019061029e9190612cd9565b610adc565b005b3480156102b157600080fd5b506102ba610ce1565b6040516102c791906136ea565b60405180910390f35b3480156102dc57600080fd5b506102f760048036038101906102f29190612bd3565b610ce7565b005b34801561030557600080fd5b50610320600480360381019061031b9190612bd3565b610d47565b005b34801561032e57600080fd5b5061034960048036038101906103449190612e8a565b610d67565b005b34801561035757600080fd5b506103606111e6565b60405161036d91906136ea565b60405180910390f35b34801561038257600080fd5b5061039d60048036038101906103989190612f2e565b6111ec565b6040516103aa919061332b565b60405180910390f35b6103cd60048036038101906103c89190612fbc565b61129e565b005b3480156103db57600080fd5b506103f660048036038101906103f19190612b6e565b611332565b60405161040391906136ea565b60405180910390f35b34801561041857600080fd5b506104216113ea565b60405161042e919061332b565b60405180910390f35b34801561044357600080fd5b5061044c611410565b60405161045991906134c8565b60405180910390f35b34801561046e57600080fd5b5061048960048036038101906104849190612c9d565b6114a2565b005b34801561049757600080fd5b506104b260048036038101906104ad9190612f2e565b6114b8565b6040516104c59796959493929190613429565b60405180910390f35b3480156104da57600080fd5b506104e36116e2565b6040516104f091906136ea565b60405180910390f35b34801561050557600080fd5b50610520600480360381019061051b9190612c22565b6116e8565b005b34801561052e57600080fd5b5061054960048036038101906105449190612f2e565b61174a565b60405161055691906134c8565b60405180910390f35b34801561056b57600080fd5b5061058660048036038101906105819190612e0f565b61185d565b604051610593919061332b565b60405180910390f35b3480156105a857600080fd5b506105c360048036038101906105be9190612eed565b611890565b6040516105d091906136ea565b60405180910390f35b3480156105e557600080fd5b5061060060048036038101906105fb9190612f2e565b6118c6565b6040516106139796959493929190613429565b60405180910390f35b34801561062857600080fd5b50610643600480360381019061063e9190612e0f565b611ae0565b604051610650919061332b565b60405180910390f35b34801561066557600080fd5b50610680600480360381019061067b9190612b97565b611b13565b60405161068d91906134ad565b60405180910390f35b600760009054906101000a900473ffffffffffffffffffffffffffffffffffffffff1673ffffffffffffffffffffffffffffffffffffffff163373ffffffffffffffffffffffffffffffffffffffff1614610726576040517f08c379a000000000000000000000000000000000000000000000000000000000815260040161071d9061354a565b60405180910390fd5b60085482111561076b576040517f08c379a0000000000000000000000000000000000000000000000000000000008152600401610762906135aa565b60405180910390fd5b8073ffffffffffffffffffffffffffffffffffffffff166108fc839081150290604051600060405180830381858888f193505050501580156107b1573d6000803e3d6000fd5b5081600860008282546107c49190613856565b925050819055507ffda3a3e0e1479b43cb1c701f7576187f4c4ad80768d627387e00184302f7d88e3382846040516107fe93929190613346565b60405180910390a15050565b60007f80ac58cd000000000000000000000000000000000000000000000000000000007bffffffffffffffffffffffffffffffffffffffffffffffffffffffff1916827bffffffffffffffffffffffffffffffffffffffffffffffffffffffff191614806108d557507f5b5e139f000000000000000000000000000000000000000000000000000000007bffffffffffffffffffffffffffffffffffffffffffffffffffffffff1916827bffffffffffffffffffffffffffffffffffffffffffffffffffffffff1916145b806108e557506108e482611ba7565b5b9050919050565b6060600080546108fb906139a4565b80601f0160208091040260200160405190810160405280929190818152602001828054610927906139a4565b80156109745780601f1061094957610100808354040283529160200191610974565b820191906000526020600020905b81548152906001019060200180831161095757829003601f168201915b5050505050905090565b600061098982611c11565b6004600083815260200190815260200160002060009054906101000a900473ffffffffffffffffffffffffffffffffffffffff169050919050565b60006109cf826111ec565b90508073ffffffffffffffffffffffffffffffffffffffff168373ffffffffffffffffffffffffffffffffffffffff161415610a40576040517f08c379a0000000000000000000000000000000000000000000000000000000008152600401610a379061368a565b60405180910390fd5b8073ffffffffffffffffffffffffffffffffffffffff16610a5f611c5c565b73ffffffffffffffffffffffffffffffffffffffff161480610a8e5750610a8d81610a88611c5c565b611b13565b5b610acd576040517f08c379a0000000000000000000000000000000000000000000000000000000008152600401610ac49061362a565b60405180910390fd5b610ad78383611c64565b505050565b6000610ae8600b611d1d565b905060006040518060e001604052803373ffffffffffffffffffffffffffffffffffffffff1681526020018381526020018881526020018781526020018673ffffffffffffffffffffffffffffffffffffffff168152602001858152602001848152509050610b578883611d2b565b600f81908060018154018082558091505060019003906000526020600020906007020160009091909190915060008201518160000160006101000a81548173ffffffffffffffffffffffffffffffffffffffff021916908373ffffffffffffffffffffffffffffffffffffffff160217905550602082015181600101556040820151816002019080519060200190610bf0929190612929565b506060820151816003015560808201518160040160006101000a81548173ffffffffffffffffffffffffffffffffffffffff021916908373ffffffffffffffffffffffffffffffffffffffff16021790555060a0820151816005019080519060200190610c5e929190612929565b5060c0820151816006019080519060200190610c7b929190612929565b505050813373ffffffffffffffffffffffffffffffffffffffff167f68ef91a94999d783b289417eda61214f3143d3d84ce820fe730e2d7943debaa788604051610cc591906136ea565b60405180910390a3610cd7600b611d49565b5050505050505050565b600c5481565b610cf8610cf2611c5c565b82611d5f565b610d37576040517f08c379a0000000000000000000000000000000000000000000000000000000008152600401610d2e906136aa565b60405180910390fd5b610d42838383611df4565b505050565b610d62838383604051806020016040528060008152506116e8565b505050565b6000600e60008381526020019081526020016000206040518060e00160405290816000820160009054906101000a900473ffffffffffffffffffffffffffffffffffffffff1673ffffffffffffffffffffffffffffffffffffffff1673ffffffffffffffffffffffffffffffffffffffff16815260200160018201548152602001600282018054610df7906139a4565b80601f0160208091040260200160405190810160405280929190818152602001828054610e23906139a4565b8015610e705780601f10610e4557610100808354040283529160200191610e70565b820191906000526020600020905b815481529060010190602001808311610e5357829003601f168201915b50505050508152602001600382015481526020016004820160009054906101000a900473ffffffffffffffffffffffffffffffffffffffff1673ffffffffffffffffffffffffffffffffffffffff1673ffffffffffffffffffffffffffffffffffffffff168152602001600582018054610ee9906139a4565b80601f0160208091040260200160405190810160405280929190818152602001828054610f15906139a4565b8015610f625780601f10610f3757610100808354040283529160200191610f62565b820191906000526020600020905b815481529060010190602001808311610f4557829003601f168201915b50505050508152602001600682018054610f7b906139a4565b80601f0160208091040260200160405190810160405280929190818152602001828054610fa7906139a4565b8015610ff45780601f10610fc957610100808354040283529160200191610ff4565b820191906000526020600020905b815481529060010190602001808311610fd757829003601f168201915b505050505081525050905082816060015114611045576040517f08c379a000000000000000000000000000000000000000000000000000000000815260040161103c906136ca565b60405180910390fd5b60008573ffffffffffffffffffffffffffffffffffffffff166370a08231306040518263ffffffff1660e01b8152600401611080919061332b565b60206040518083038186803b15801561109857600080fd5b505afa1580156110ac573d6000803e3d6000fd5b505050506040513d601f19601f820116820180604052508101906110d09190612f57565b905080841115611115576040517f08c379a000000000000000000000000000000000000000000000000000000000815260040161110c9061360a565b60405180910390fd5b8573ffffffffffffffffffffffffffffffffffffffff1663a9059cbb86866040518363ffffffff1660e01b8152600401611150929190613400565b602060405180830381600087803b15801561116a57600080fd5b505af115801561117e573d6000803e3d6000fd5b505050506040513d601f19601f820116820180604052508101906111a29190612de6565b507ffda3a3e0e1479b43cb1c701f7576187f4c4ad80768d627387e00184302f7d88e3386866040516111d69392919061337d565b60405180910390a1505050505050565b600d5481565b6000806002600084815260200190815260200160002060009054906101000a900473ffffffffffffffffffffffffffffffffffffffff169050600073ffffffffffffffffffffffffffffffffffffffff168173ffffffffffffffffffffffffffffffffffffffff161415611295576040517f08c379a000000000000000000000000000000000000000000000000000000000815260040161128c9061366a565b60405180910390fd5b80915050919050565b8073ffffffffffffffffffffffffffffffffffffffff166323b872dd3330856040518463ffffffff1660e01b81526004016112db9392919061337d565b602060405180830381600087803b1580156112f557600080fd5b505af1158015611309573d6000803e3d6000fd5b505050506040513d601f19601f8201168201806040525081019061132d9190612de6565b505050565b60008073ffffffffffffffffffffffffffffffffffffffff168273ffffffffffffffffffffffffffffffffffffffff1614156113a3576040517f08c379a000000000000000000000000000000000000000000000000000000000815260040161139a906135ca565b60405180910390fd5b600360008373ffffffffffffffffffffffffffffffffffffffff1673ffffffffffffffffffffffffffffffffffffffff168152602001908152602001600020549050919050565b600760009054906101000a900473ffffffffffffffffffffffffffffffffffffffff1681565b60606001805461141f906139a4565b80601f016020809104026020016040519081016040528092919081815260200182805461144b906139a4565b80156114985780601f1061146d57610100808354040283529160200191611498565b820191906000526020600020905b81548152906001019060200180831161147b57829003601f168201915b5050505050905090565b6114b46114ad611c5c565b838361205b565b5050565b600f81815481106114c857600080fd5b90600052602060002090600702016000915090508060000160009054906101000a900473ffffffffffffffffffffffffffffffffffffffff1690806001015490806002018054611517906139a4565b80601f0160208091040260200160405190810160405280929190818152602001828054611543906139a4565b80156115905780601f1061156557610100808354040283529160200191611590565b820191906000526020600020905b81548152906001019060200180831161157357829003601f168201915b5050505050908060030154908060040160009054906101000a900473ffffffffffffffffffffffffffffffffffffffff16908060050180546115d1906139a4565b80601f01602080910402602001604051908101604052809291908181526020018280546115fd906139a4565b801561164a5780601f1061161f5761010080835404028352916020019161164a565b820191906000526020600020905b81548152906001019060200180831161162d57829003601f168201915b50505050509080600601805461165f906139a4565b80601f016020809104026020016040519081016040528092919081815260200182805461168b906139a4565b80156116d85780601f106116ad576101008083540402835291602001916116d8565b820191906000526020600020905b8154815290600101906020018083116116bb57829003601f168201915b5050505050905087565b60085481565b6116f96116f3611c5c565b83611d5f565b611738576040517f08c379a000000000000000000000000000000000000000000000000000000000815260040161172f906136aa565b60405180910390fd5b611744848484846121c8565b50505050565b606061175582611c11565b6000600660008481526020019081526020016000208054611775906139a4565b80601f01602080910402602001604051908101604052809291908181526020018280546117a1906139a4565b80156117ee5780601f106117c3576101008083540402835291602001916117ee565b820191906000526020600020905b8154815290600101906020018083116117d157829003601f168201915b5050505050905060006117ff612224565b9050600081511415611815578192505050611858565b60008251111561184a578082604051602001611832929190613307565b60405160208183030381529060405292505050611858565b6118538461223b565b925050505b919050565b60096020528060005260406000206000915054906101000a900473ffffffffffffffffffffffffffffffffffffffff1681565b60008061189d600b611d1d565b90506118a933826122a3565b6118b3818461247d565b6118bd600b611d49565b80915050919050565b600e6020528060005260406000206000915090508060000160009054906101000a900473ffffffffffffffffffffffffffffffffffffffff1690806001015490806002018054611915906139a4565b80601f0160208091040260200160405190810160405280929190818152602001828054611941906139a4565b801561198e5780601f106119635761010080835404028352916020019161198e565b820191906000526020600020905b81548152906001019060200180831161197157829003601f168201915b5050505050908060030154908060040160009054906101000a900473ffffffffffffffffffffffffffffffffffffffff16908060050180546119cf906139a4565b80601f01602080910402602001604051908101604052809291908181526020018280546119fb906139a4565b8015611a485780601f10611a1d57610100808354040283529160200191611a48565b820191906000526020600020905b815481529060010190602001808311611a2b57829003601f168201915b505050505090806006018054611a5d906139a4565b80601f0160208091040260200160405190810160405280929190818152602001828054611a89906139a4565b8015611ad65780601f10611aab57610100808354040283529160200191611ad6565b820191906000526020600020905b815481529060010190602001808311611ab957829003601f168201915b5050505050905087565b600a6020528060005260406000206000915054906101000a900473ffffffffffffffffffffffffffffffffffffffff1681565b6000600560008473ffffffffffffffffffffffffffffffffffffffff1673ffffffffffffffffffffffffffffffffffffffff16815260200190815260200160002060008373ffffffffffffffffffffffffffffffffffffffff1673ffffffffffffffffffffffffffffffffffffffff16815260200190815260200160002060009054906101000a900460ff16905092915050565b60007f01ffc9a7000000000000000000000000000000000000000000000000000000007bffffffffffffffffffffffffffffffffffffffffffffffffffffffff1916827bffffffffffffffffffffffffffffffffffffffffffffffffffffffff1916149050919050565b611c1a816124f1565b611c59576040517f08c379a0000000000000000000000000000000000000000000000000000000008152600401611c509061366a565b60405180910390fd5b50565b600033905090565b816004600083815260200190815260200160002060006101000a81548173ffffffffffffffffffffffffffffffffffffffff021916908373ffffffffffffffffffffffffffffffffffffffff160217905550808273ffffffffffffffffffffffffffffffffffffffff16611cd7836111ec565b73ffffffffffffffffffffffffffffffffffffffff167f8c5be1e5ebec7d5bd14f71427d1e84f3dd0314c0f7b2291e5b200ac8c7c3b92560405160405180910390a45050565b600081600001549050919050565b611d4582826040518060200160405280600081525061255d565b5050565b6001816000016000828254019250508190555050565b600080611d6b836111ec565b90508073ffffffffffffffffffffffffffffffffffffffff168473ffffffffffffffffffffffffffffffffffffffff161480611dad5750611dac8185611b13565b5b80611deb57508373ffffffffffffffffffffffffffffffffffffffff16611dd38461097e565b73ffffffffffffffffffffffffffffffffffffffff16145b91505092915050565b8273ffffffffffffffffffffffffffffffffffffffff16611e14826111ec565b73ffffffffffffffffffffffffffffffffffffffff1614611e6a576040517f08c379a0000000000000000000000000000000000000000000000000000000008152600401611e619061350a565b60405180910390fd5b600073ffffffffffffffffffffffffffffffffffffffff168273ffffffffffffffffffffffffffffffffffffffff161415611eda576040517f08c379a0000000000000000000000000000000000000000000000000000000008152600401611ed19061356a565b60405180910390fd5b611ee58383836125b8565b611ef0600082611c64565b6001600360008573ffffffffffffffffffffffffffffffffffffffff1673ffffffffffffffffffffffffffffffffffffffff1681526020019081526020016000206000828254611f409190613856565b925050819055506001600360008473ffffffffffffffffffffffffffffffffffffffff1673ffffffffffffffffffffffffffffffffffffffff1681526020019081526020016000206000828254611f9791906137cf565b92505081905550816002600083815260200190815260200160002060006101000a81548173ffffffffffffffffffffffffffffffffffffffff021916908373ffffffffffffffffffffffffffffffffffffffff160217905550808273ffffffffffffffffffffffffffffffffffffffff168473ffffffffffffffffffffffffffffffffffffffff167fddf252ad1be2c89b69c2b068fc378daa952ba7f163c4a11628f55a4df523b3ef60405160405180910390a46120568383836125bd565b505050565b8173ffffffffffffffffffffffffffffffffffffffff168373ffffffffffffffffffffffffffffffffffffffff1614156120ca576040517f08c379a00000000000000000000000000000000000000000000000000000000081526004016120c19061358a565b60405180910390fd5b80600560008573ffffffffffffffffffffffffffffffffffffffff1673ffffffffffffffffffffffffffffffffffffffff16815260200190815260200160002060008473ffffffffffffffffffffffffffffffffffffffff1673ffffffffffffffffffffffffffffffffffffffff16815260200190815260200160002060006101000a81548160ff0219169083151502179055508173ffffffffffffffffffffffffffffffffffffffff168373ffffffffffffffffffffffffffffffffffffffff167f17307eab39ab6107e8899845ad3d59bd9653f200f220920489ca2b5937696c31836040516121bb91906134ad565b60405180910390a3505050565b6121d3848484611df4565b6121df848484846125c2565b61221e576040517f08c379a0000000000000000000000000000000000000000000000000000000008152600401612215906134ea565b60405180910390fd5b50505050565b606060405180602001604052806000815250905090565b606061224682611c11565b6000612250612224565b90506000815111612270576040518060200160405280600081525061229b565b8061227a84612759565b60405160200161228b929190613307565b6040516020818303038152906040525b915050919050565b600073ffffffffffffffffffffffffffffffffffffffff168273ffffffffffffffffffffffffffffffffffffffff161415612313576040517f08c379a000000000000000000000000000000000000000000000000000000000815260040161230a9061364a565b60405180910390fd5b61231c816124f1565b1561235c576040517f08c379a00000000000000000000000000000000000000000000000000000000081526004016123539061352a565b60405180910390fd5b612368600083836125b8565b6001600360008473ffffffffffffffffffffffffffffffffffffffff1673ffffffffffffffffffffffffffffffffffffffff16815260200190815260200160002060008282546123b891906137cf565b92505081905550816002600083815260200190815260200160002060006101000a81548173ffffffffffffffffffffffffffffffffffffffff021916908373ffffffffffffffffffffffffffffffffffffffff160217905550808273ffffffffffffffffffffffffffffffffffffffff16600073ffffffffffffffffffffffffffffffffffffffff167fddf252ad1be2c89b69c2b068fc378daa952ba7f163c4a11628f55a4df523b3ef60405160405180910390a4612479600083836125bd565b5050565b612486826124f1565b6124c5576040517f08c379a00000000000000000000000000000000000000000000000000000000081526004016124bc906135ea565b60405180910390fd5b806006600084815260200190815260200160002090805190602001906124ec929190612929565b505050565b60008073ffffffffffffffffffffffffffffffffffffffff166002600084815260200190815260200160002060009054906101000a900473ffffffffffffffffffffffffffffffffffffffff1673ffffffffffffffffffffffffffffffffffffffff1614159050919050565b61256783836122a3565b61257460008484846125c2565b6125b3576040517f08c379a00000000000000000000000000000000000000000000000000000000081526004016125aa906134ea565b60405180910390fd5b505050565b505050565b505050565b60006125e38473ffffffffffffffffffffffffffffffffffffffff16612906565b1561274c578373ffffffffffffffffffffffffffffffffffffffff1663150b7a0261260c611c5c565b8786866040518563ffffffff1660e01b815260040161262e94939291906133b4565b602060405180830381600087803b15801561264857600080fd5b505af192505050801561267957506040513d601f19601f820116820180604052508101906126769190612e61565b60015b6126fc573d80600081146126a9576040519150601f19603f3d011682016040523d82523d6000602084013e6126ae565b606091505b506000815114156126f4576040517f08c379a00000000000000000000000000000000000000000000000000000000081526004016126eb906134ea565b60405180910390fd5b805181602001fd5b63150b7a0260e01b7bffffffffffffffffffffffffffffffffffffffffffffffffffffffff1916817bffffffffffffffffffffffffffffffffffffffffffffffffffffffff191614915050612751565b600190505b949350505050565b606060008214156127a1576040518060400160405280600181526020017f30000000000000000000000000000000000000000000000000000000000000008152509050612901565b600082905060005b600082146127d35780806127bc90613a07565b915050600a826127cc9190613825565b91506127a9565b60008167ffffffffffffffff811115612815577f4e487b7100000000000000000000000000000000000000000000000000000000600052604160045260246000fd5b6040519080825280601f01601f1916602001820160405280156128475781602001600182028036833780820191505090505b5090505b600085146128fa576001826128609190613856565b9150600a8561286f9190613a50565b603061287b91906137cf565b60f81b8183815181106128b7577f4e487b7100000000000000000000000000000000000000000000000000000000600052603260045260246000fd5b60200101907effffffffffffffffffffffffffffffffffffffffffffffffffffffffffffff1916908160001a905350600a856128f39190613825565b945061284b565b8093505050505b919050565b6000808273ffffffffffffffffffffffffffffffffffffffff163b119050919050565b828054612935906139a4565b90600052602060002090601f016020900481019282612957576000855561299e565b82601f1061297057805160ff191683800117855561299e565b8280016001018555821561299e579182015b8281111561299d578251825591602001919060010190612982565b5b5090506129ab91906129af565b5090565b5b808211156129c85760008160009055506001016129b0565b5090565b60006129df6129da8461372a565b613705565b9050828152602081018484840111156129f757600080fd5b612a02848285613962565b509392505050565b6000612a1d612a188461375b565b613705565b905082815260208101848484011115612a3557600080fd5b612a40848285613962565b509392505050565b600081359050612a5781613f34565b92915050565b600081359050612a6c81613f4b565b92915050565b600081359050612a8181613f62565b92915050565b600081519050612a9681613f62565b92915050565b600081359050612aab81613f79565b92915050565b600081359050612ac081613f90565b92915050565b600081519050612ad581613f90565b92915050565b600082601f830112612aec57600080fd5b8135612afc8482602086016129cc565b91505092915050565b600081359050612b1481613fa7565b92915050565b600082601f830112612b2b57600080fd5b8135612b3b848260208601612a0a565b91505092915050565b600081359050612b5381613fbe565b92915050565b600081519050612b6881613fbe565b92915050565b600060208284031215612b8057600080fd5b6000612b8e84828501612a48565b91505092915050565b60008060408385031215612baa57600080fd5b6000612bb885828601612a48565b9250506020612bc985828601612a48565b9150509250929050565b600080600060608486031215612be857600080fd5b6000612bf686828701612a48565b9350506020612c0786828701612a48565b9250506040612c1886828701612b44565b9150509250925092565b60008060008060808587031215612c3857600080fd5b6000612c4687828801612a48565b9450506020612c5787828801612a48565b9350506040612c6887828801612b44565b925050606085013567ffffffffffffffff811115612c8557600080fd5b612c9187828801612adb565b91505092959194509250565b60008060408385031215612cb057600080fd5b6000612cbe85828601612a48565b9250506020612ccf85828601612a72565b9150509250929050565b60008060008060008060c08789031215612cf257600080fd5b6000612d0089828a01612a48565b965050602087013567ffffffffffffffff811115612d1d57600080fd5b612d2989828a01612b1a565b9550506040612d3a89828a01612b44565b9450506060612d4b89828a01612a48565b935050608087013567ffffffffffffffff811115612d6857600080fd5b612d7489828a01612b1a565b92505060a087013567ffffffffffffffff811115612d9157600080fd5b612d9d89828a01612b1a565b9150509295509295509295565b60008060408385031215612dbd57600080fd5b6000612dcb85828601612a48565b9250506020612ddc85828601612b44565b9150509250929050565b600060208284031215612df857600080fd5b6000612e0684828501612a87565b91505092915050565b600060208284031215612e2157600080fd5b6000612e2f84828501612a9c565b91505092915050565b600060208284031215612e4a57600080fd5b6000612e5884828501612ab1565b91505092915050565b600060208284031215612e7357600080fd5b6000612e8184828501612ac6565b91505092915050565b60008060008060808587031215612ea057600080fd5b6000612eae87828801612b05565b9450506020612ebf87828801612a48565b9350506040612ed087828801612b44565b9250506060612ee187828801612b44565b91505092959194509250565b600060208284031215612eff57600080fd5b600082013567ffffffffffffffff811115612f1957600080fd5b612f2584828501612b1a565b91505092915050565b600060208284031215612f4057600080fd5b6000612f4e84828501612b44565b91505092915050565b600060208284031215612f6957600080fd5b6000612f7784828501612b59565b91505092915050565b60008060408385031215612f9357600080fd5b6000612fa185828601612b44565b9250506020612fb285828601612a5d565b9150509250929050565b60008060408385031215612fcf57600080fd5b6000612fdd85828601612b44565b9250506020612fee85828601612b05565b9150509250929050565b6130018161392c565b82525050565b6130108161388a565b82525050565b61301f816138ae565b82525050565b60006130308261378c565b61303a81856137a2565b935061304a818560208601613971565b61305381613b3d565b840191505092915050565b600061306982613797565b61307381856137b3565b9350613083818560208601613971565b61308c81613b3d565b840191505092915050565b60006130a282613797565b6130ac81856137c4565b93506130bc818560208601613971565b80840191505092915050565b60006130d56032836137b3565b91506130e082613b4e565b604082019050919050565b60006130f86025836137b3565b915061310382613b9d565b604082019050919050565b600061311b601c836137b3565b915061312682613bec565b602082019050919050565b600061313e601d836137b3565b915061314982613c15565b602082019050919050565b60006131616024836137b3565b915061316c82613c3e565b604082019050919050565b60006131846019836137b3565b915061318f82613c8d565b602082019050919050565b60006131a76012836137b3565b91506131b282613cb6565b602082019050919050565b60006131ca6029836137b3565b91506131d582613cdf565b604082019050919050565b60006131ed602e836137b3565b91506131f882613d2e565b604082019050919050565b6000613210600e836137b3565b915061321b82613d7d565b602082019050919050565b6000613233603e836137b3565b915061323e82613da6565b604082019050919050565b60006132566020836137b3565b915061326182613df5565b602082019050919050565b60006132796018836137b3565b915061328482613e1e565b602082019050919050565b600061329c6021836137b3565b91506132a782613e47565b604082019050919050565b60006132bf602e836137b3565b91506132ca82613e96565b604082019050919050565b60006132e2602d836137b3565b91506132ed82613ee5565b604082019050919050565b61330181613922565b82525050565b60006133138285613097565b915061331f8284613097565b91508190509392505050565b60006020820190506133406000830184613007565b92915050565b600060608201905061335b6000830186613007565b6133686020830185612ff8565b61337560408301846132f8565b949350505050565b60006060820190506133926000830186613007565b61339f6020830185613007565b6133ac60408301846132f8565b949350505050565b60006080820190506133c96000830187613007565b6133d66020830186613007565b6133e360408301856132f8565b81810360608301526133f58184613025565b905095945050505050565b60006040820190506134156000830185613007565b61342260208301846132f8565b9392505050565b600060e08201905061343e600083018a613007565b61344b60208301896132f8565b818103604083015261345d818861305e565b905061346c60608301876132f8565b6134796080830186613007565b81810360a083015261348b818561305e565b905081810360c083015261349f818461305e565b905098975050505050505050565b60006020820190506134c26000830184613016565b92915050565b600060208201905081810360008301526134e2818461305e565b905092915050565b60006020820190508181036000830152613503816130c8565b9050919050565b60006020820190508181036000830152613523816130eb565b9050919050565b600060208201905081810360008301526135438161310e565b9050919050565b6000602082019050818103600083015261356381613131565b9050919050565b6000602082019050818103600083015261358381613154565b9050919050565b600060208201905081810360008301526135a381613177565b9050919050565b600060208201905081810360008301526135c38161319a565b9050919050565b600060208201905081810360008301526135e3816131bd565b9050919050565b60006020820190508181036000830152613603816131e0565b9050919050565b6000602082019050818103600083015261362381613203565b9050919050565b6000602082019050818103600083015261364381613226565b9050919050565b6000602082019050818103600083015261366381613249565b9050919050565b600060208201905081810360008301526136838161326c565b9050919050565b600060208201905081810360008301526136a38161328f565b9050919050565b600060208201905081810360008301526136c3816132b2565b9050919050565b600060208201905081810360008301526136e3816132d5565b9050919050565b60006020820190506136ff60008301846132f8565b92915050565b600061370f613720565b905061371b82826139d6565b919050565b6000604051905090565b600067ffffffffffffffff82111561374557613744613b0e565b5b61374e82613b3d565b9050602081019050919050565b600067ffffffffffffffff82111561377657613775613b0e565b5b61377f82613b3d565b9050602081019050919050565b600081519050919050565b600081519050919050565b600082825260208201905092915050565b600082825260208201905092915050565b600081905092915050565b60006137da82613922565b91506137e583613922565b9250827fffffffffffffffffffffffffffffffffffffffffffffffffffffffffffffffff0382111561381a57613819613a81565b5b828201905092915050565b600061383082613922565b915061383b83613922565b92508261384b5761384a613ab0565b5b828204905092915050565b600061386182613922565b915061386c83613922565b92508282101561387f5761387e613a81565b5b828203905092915050565b600061389582613902565b9050919050565b60006138a782613902565b9050919050565b60008115159050919050565b6000819050919050565b60007fffffffff0000000000000000000000000000000000000000000000000000000082169050919050565b60006138fb8261388a565b9050919050565b600073ffffffffffffffffffffffffffffffffffffffff82169050919050565b6000819050919050565b60006139378261393e565b9050919050565b600061394982613950565b9050919050565b600061395b82613902565b9050919050565b82818337600083830152505050565b60005b8381101561398f578082015181840152602081019050613974565b8381111561399e576000848401525b50505050565b600060028204905060018216806139bc57607f821691505b602082108114156139d0576139cf613adf565b5b50919050565b6139df82613b3d565b810181811067ffffffffffffffff821117156139fe576139fd613b0e565b5b80604052505050565b6000613a1282613922565b91507fffffffffffffffffffffffffffffffffffffffffffffffffffffffffffffffff821415613a4557613a44613a81565b5b600182019050919050565b6000613a5b82613922565b9150613a6683613922565b925082613a7657613a75613ab0565b5b828206905092915050565b7f4e487b7100000000000000000000000000000000000000000000000000000000600052601160045260246000fd5b7f4e487b7100000000000000000000000000000000000000000000000000000000600052601260045260246000fd5b7f4e487b7100000000000000000000000000000000000000000000000000000000600052602260045260246000fd5b7f4e487b7100000000000000000000000000000000000000000000000000000000600052604160045260246000fd5b6000601f19601f8301169050919050565b7f4552433732313a207472616e7366657220746f206e6f6e20455243373231526560008201527f63656976657220696d706c656d656e7465720000000000000000000000000000602082015250565b7f4552433732313a207472616e736665722066726f6d20696e636f72726563742060008201527f6f776e6572000000000000000000000000000000000000000000000000000000602082015250565b7f4552433732313a20746f6b656e20616c7265616479206d696e74656400000000600082015250565b7f4f6e6c79206f776e65722063616e2077697468647261772066756e6473000000600082015250565b7f4552433732313a207472616e7366657220746f20746865207a65726f2061646460008201527f7265737300000000000000000000000000000000000000000000000000000000602082015250565b7f4552433732313a20617070726f766520746f2063616c6c657200000000000000600082015250565b7f496e73756666696369656e742066756e64730000000000000000000000000000600082015250565b7f4552433732313a2061646472657373207a65726f206973206e6f74206120766160008201527f6c6964206f776e65720000000000000000000000000000000000000000000000602082015250565b7f45524337323155524953746f726167653a2055524920736574206f66206e6f6e60008201527f6578697374656e7420746f6b656e000000000000000000000000000000000000602082015250565b7f62616c616e6365206973206c6f77000000000000000000000000000000000000600082015250565b7f4552433732313a20617070726f76652063616c6c6572206973206e6f7420746f60008201527f6b656e206f776e6572206e6f7220617070726f76656420666f7220616c6c0000602082015250565b7f4552433732313a206d696e7420746f20746865207a65726f2061646472657373600082015250565b7f4552433732313a20696e76616c696420746f6b656e2049440000000000000000600082015250565b7f4552433732313a20617070726f76616c20746f2063757272656e74206f776e6560008201527f7200000000000000000000000000000000000000000000000000000000000000602082015250565b7f4552433732313a2063616c6c6572206973206e6f7420746f6b656e206f776e6560008201527f72206e6f7220617070726f766564000000000000000000000000000000000000602082015250565b7f52657175657374656420616d6f756e74206e6f74207468652073616d6520617360008201527f20626f756e74792076616c756500000000000000000000000000000000000000602082015250565b613f3d8161388a565b8114613f4857600080fd5b50565b613f548161389c565b8114613f5f57600080fd5b50565b613f6b816138ae565b8114613f7657600080fd5b50565b613f82816138ba565b8114613f8d57600080fd5b50565b613f99816138c4565b8114613fa457600080fd5b50565b613fb0816138f0565b8114613fbb57600080fd5b50565b613fc781613922565b8114613fd257600080fd5b5056fea2646970667358221220d06dafad4ad3c30567e73b5960284f93940650a8f2f9b6782b1259a3b290666964736f6c63430008020033",
  "linkReferences": {},
  "deployedLinkReferences": {}
}