{
  "_format": "hh-sol-artifact-1",
  "contractName": "BountyNFTFactory",
  "sourceName": "contracts/BountyNFTFactory.sol",
  "abi": [
    {
      "inputs": [
        {
          "internalType": "string",
          "name": "_name",
          "type": "string"
        },
        {
          "internalType": "string",
          "name": "_symbol",
          "type": "string"
        }
      ],
      "stateMutability": "nonpayable",
      "type": "constructor"
    },
    {
      "anonymous": false,
      "inputs": [
        {
          "indexed": true,
          "internalType": "address",
          "name": "owner",
          "type": "address"
        },
        {
          "indexed": true,
          "internalType": "address",
          "name": "approved",
          "type": "address"
        },
        {
          "indexed": true,
          "internalType": "uint256",
          "name": "tokenId",
          "type": "uint256"
        }
      ],
      "name": "Approval",
      "type": "event"
    },
    {
      "anonymous": false,
      "inputs": [
        {
          "indexed": true,
          "internalType": "address",
          "name": "owner",
          "type": "address"
        },
        {
          "indexed": true,
          "internalType": "address",
          "name": "operator",
          "type": "address"
        },
        {
          "indexed": false,
          "internalType": "bool",
          "name": "approved",
          "type": "bool"
        }
      ],
      "name": "ApprovalForAll",
      "type": "event"
    },
    {
      "anonymous": false,
      "inputs": [
        {
          "indexed": true,
          "internalType": "address",
          "name": "_createdBy",
          "type": "address"
        },
        {
          "indexed": true,
          "internalType": "uint256",
          "name": "_id",
          "type": "uint256"
        },
        {
          "indexed": false,
          "internalType": "uint256",
          "name": "_value",
          "type": "uint256"
        }
      ],
      "name": "MintNewBounty",
      "type": "event"
    },
    {
      "anonymous": false,
      "inputs": [
        {
          "indexed": true,
          "internalType": "address",
          "name": "from",
          "type": "address"
        },
        {
          "indexed": true,
          "internalType": "address",
          "name": "to",
          "type": "address"
        },
        {
          "indexed": true,
          "internalType": "uint256",
          "name": "tokenId",
          "type": "uint256"
        }
      ],
      "name": "Transfer",
      "type": "event"
    },
    {
      "anonymous": false,
      "inputs": [
        {
          "indexed": false,
          "internalType": "address",
          "name": "_from",
          "type": "address"
        },
        {
          "indexed": false,
          "internalType": "uint256",
          "name": "_amount",
          "type": "uint256"
        }
      ],
      "name": "TransferReceived",
      "type": "event"
    },
    {
      "anonymous": false,
      "inputs": [
        {
          "indexed": false,
          "internalType": "address",
          "name": "_from",
          "type": "address"
        },
        {
          "indexed": false,
          "internalType": "address",
          "name": "_destAddr",
          "type": "address"
        },
        {
          "indexed": false,
          "internalType": "uint256",
          "name": "_amount",
          "type": "uint256"
        }
      ],
      "name": "TransferSent",
      "type": "event"
    },
    {
      "inputs": [],
      "name": "_price",
      "outputs": [
        {
          "internalType": "uint256",
          "name": "",
          "type": "uint256"
        }
      ],
      "stateMutability": "view",
      "type": "function"
    },
    {
      "inputs": [
        {
          "internalType": "uint256",
          "name": "",
          "type": "uint256"
        }
      ],
      "name": "allMintedBounties",
      "outputs": [
        {
          "internalType": "address",
          "name": "bountyOwner",
          "type": "address"
        },
        {
          "internalType": "uint256",
          "name": "NFT_ID",
          "type": "uint256"
        },
        {
          "internalType": "string",
          "name": "title",
          "type": "string"
        },
        {
          "internalType": "uint256",
          "name": "value",
          "type": "uint256"
        },
        {
          "internalType": "address",
          "name": "erc20tokenAddress",
          "type": "address"
        },
        {
          "internalType": "string",
          "name": "erc20tokenSymbol",
          "type": "string"
        },
        {
          "internalType": "string",
          "name": "imageURI",
          "type": "string"
        }
      ],
      "stateMutability": "view",
      "type": "function"
    },
    {
      "inputs": [
        {
          "internalType": "address",
          "name": "to",
          "type": "address"
        },
        {
          "internalType": "uint256",
          "name": "tokenId",
          "type": "uint256"
        }
      ],
      "name": "approve",
      "outputs": [],
      "stateMutability": "nonpayable",
      "type": "function"
    },
    {
      "inputs": [],
      "name": "balance",
      "outputs": [
        {
          "internalType": "uint256",
          "name": "",
          "type": "uint256"
        }
      ],
      "stateMutability": "view",
      "type": "function"
    },
    {
      "inputs": [
        {
          "internalType": "address",
          "name": "owner",
          "type": "address"
        }
      ],
      "name": "balanceOf",
      "outputs": [
        {
          "internalType": "uint256",
          "name": "",
          "type": "uint256"
        }
      ],
      "stateMutability": "view",
      "type": "function"
    },
    {
      "inputs": [
        {
          "internalType": "uint256",
          "name": "",
          "type": "uint256"
        }
      ],
      "name": "bounties",
      "outputs": [
        {
          "internalType": "address",
          "name": "bountyOwner",
          "type": "address"
        },
        {
          "internalType": "uint256",
          "name": "NFT_ID",
          "type": "uint256"
        },
        {
          "internalType": "string",
          "name": "title",
          "type": "string"
        },
        {
          "internalType": "uint256",
          "name": "value",
          "type": "uint256"
        },
        {
          "internalType": "address",
          "name": "erc20tokenAddress",
          "type": "address"
        },
        {
          "internalType": "string",
          "name": "erc20tokenSymbol",
          "type": "string"
        },
        {
          "internalType": "string",
          "name": "imageURI",
          "type": "string"
        }
      ],
      "stateMutability": "view",
      "type": "function"
    },
    {
      "inputs": [
        {
          "internalType": "bytes32",
          "name": "",
          "type": "bytes32"
        }
      ],
      "name": "bountyIdToBountyOwner",
      "outputs": [
        {
          "internalType": "address",
          "name": "",
          "type": "address"
        }
      ],
      "stateMutability": "view",
      "type": "function"
    },
    {
      "inputs": [
        {
          "internalType": "bytes32",
          "name": "",
          "type": "bytes32"
        }
      ],
      "name": "bountyIdToSmartContractAddress",
      "outputs": [
        {
          "internalType": "address",
          "name": "",
          "type": "address"
        }
      ],
      "stateMutability": "view",
      "type": "function"
    },
    {
      "inputs": [
        {
          "internalType": "address",
          "name": "_newBountyOwner",
          "type": "address"
        },
        {
          "internalType": "uint256",
          "name": "_newBountyId",
          "type": "uint256"
        },
        {
          "internalType": "string",
          "name": "_title",
          "type": "string"
        },
        {
          "internalType": "uint256",
          "name": "_value",
          "type": "uint256"
        },
        {
          "internalType": "address",
          "name": "_erc20tokenAddress",
          "type": "address"
        },
        {
          "internalType": "string",
          "name": "_erc20tokenSymbol",
          "type": "string"
        },
        {
          "internalType": "string",
          "name": "_imageURI",
          "type": "string"
        }
      ],
      "name": "createBounty",
      "outputs": [],
      "stateMutability": "nonpayable",
      "type": "function"
    },
    {
      "inputs": [
        {
          "internalType": "uint256",
          "name": "_amount",
          "type": "uint256"
        },
        {
          "internalType": "contract IERC20",
          "name": "token",
          "type": "address"
        }
      ],
      "name": "deposit",
      "outputs": [],
      "stateMutability": "payable",
      "type": "function"
    },
    {
      "inputs": [
        {
          "internalType": "uint256",
          "name": "tokenId",
          "type": "uint256"
        }
      ],
      "name": "getApproved",
      "outputs": [
        {
          "internalType": "address",
          "name": "",
          "type": "address"
        }
      ],
      "stateMutability": "view",
      "type": "function"
    },
    {
      "inputs": [
        {
          "internalType": "address",
          "name": "owner",
          "type": "address"
        },
        {
          "internalType": "address",
          "name": "operator",
          "type": "address"
        }
      ],
      "name": "isApprovedForAll",
      "outputs": [
        {
          "internalType": "bool",
          "name": "",
          "type": "bool"
        }
      ],
      "stateMutability": "view",
      "type": "function"
    },
    {
      "inputs": [],
      "name": "maxTokenIds",
      "outputs": [
        {
          "internalType": "uint256",
          "name": "",
          "type": "uint256"
        }
      ],
      "stateMutability": "view",
      "type": "function"
    },
    {
      "inputs": [
        {
          "internalType": "string",
          "name": "tokenURI",
          "type": "string"
        }
      ],
      "name": "mint",
      "outputs": [
        {
          "internalType": "uint256",
          "name": "",
          "type": "uint256"
        }
      ],
      "stateMutability": "nonpayable",
      "type": "function"
    },
    {
      "inputs": [],
      "name": "name",
      "outputs": [
        {
          "internalType": "string",
          "name": "",
          "type": "string"
        }
      ],
      "stateMutability": "view",
      "type": "function"
    },
    {
      "inputs": [],
      "name": "owner",
      "outputs": [
        {
          "internalType": "address",
          "name": "",
          "type": "address"
        }
      ],
      "stateMutability": "view",
      "type": "function"
    },
    {
      "inputs": [
        {
          "internalType": "uint256",
          "name": "tokenId",
          "type": "uint256"
        }
      ],
      "name": "ownerOf",
      "outputs": [
        {
          "internalType": "address",
          "name": "",
          "type": "address"
        }
      ],
      "stateMutability": "view",
      "type": "function"
    },
    {
      "inputs": [
        {
          "internalType": "address",
          "name": "from",
          "type": "address"
        },
        {
          "internalType": "address",
          "name": "to",
          "type": "address"
        },
        {
          "internalType": "uint256",
          "name": "tokenId",
          "type": "uint256"
        }
      ],
      "name": "safeTransferFrom",
      "outputs": [],
      "stateMutability": "nonpayable",
      "type": "function"
    },
    {
      "inputs": [
        {
          "internalType": "address",
          "name": "from",
          "type": "address"
        },
        {
          "internalType": "address",
          "name": "to",
          "type": "address"
        },
        {
          "internalType": "uint256",
          "name": "tokenId",
          "type": "uint256"
        },
        {
          "internalType": "bytes",
          "name": "data",
          "type": "bytes"
        }
      ],
      "name": "safeTransferFrom",
      "outputs": [],
      "stateMutability": "nonpayable",
      "type": "function"
    },
    {
      "inputs": [
        {
          "internalType": "address",
          "name": "operator",
          "type": "address"
        },
        {
          "internalType": "bool",
          "name": "approved",
          "type": "bool"
        }
      ],
      "name": "setApprovalForAll",
      "outputs": [],
      "stateMutability": "nonpayable",
      "type": "function"
    },
    {
      "inputs": [
        {
          "internalType": "bytes4",
          "name": "interfaceId",
          "type": "bytes4"
        }
      ],
      "name": "supportsInterface",
      "outputs": [
        {
          "internalType": "bool",
          "name": "",
          "type": "bool"
        }
      ],
      "stateMutability": "view",
      "type": "function"
    },
    {
      "inputs": [],
      "name": "symbol",
      "outputs": [
        {
          "internalType": "string",
          "name": "",
          "type": "string"
        }
      ],
      "stateMutability": "view",
      "type": "function"
    },
    {
      "inputs": [
        {
          "internalType": "uint256",
          "name": "tokenId",
          "type": "uint256"
        }
      ],
      "name": "tokenURI",
      "outputs": [
        {
          "internalType": "string",
          "name": "",
          "type": "string"
        }
      ],
      "stateMutability": "view",
      "type": "function"
    },
    {
      "inputs": [
        {
          "internalType": "contract IERC20",
          "name": "token",
          "type": "address"
        },
        {
          "internalType": "address",
          "name": "to",
          "type": "address"
        },
        {
          "internalType": "uint256",
          "name": "amount",
          "type": "uint256"
        },
        {
          "internalType": "uint256",
          "name": "bountyId",
          "type": "uint256"
        }
      ],
      "name": "transferERC20",
      "outputs": [],
      "stateMutability": "nonpayable",
      "type": "function"
    },
    {
      "inputs": [
        {
          "internalType": "address",
          "name": "from",
          "type": "address"
        },
        {
          "internalType": "address",
          "name": "to",
          "type": "address"
        },
        {
          "internalType": "uint256",
          "name": "tokenId",
          "type": "uint256"
        }
      ],
      "name": "transferFrom",
      "outputs": [],
      "stateMutability": "nonpayable",
      "type": "function"
    },
    {
      "inputs": [
        {
          "internalType": "uint256",
          "name": "amount",
          "type": "uint256"
        },
        {
          "internalType": "address payable",
          "name": "destAddr",
          "type": "address"
        }
      ],
      "name": "withdraw",
      "outputs": [],
      "stateMutability": "nonpayable",
      "type": "function"
    }
  ],
  "bytecode": "0x6080604052655af3107a4000600c55612710600d553480156200002157600080fd5b50604051620044b9380380620044b98339818101604052810190620000479190620001e8565b8181816000908051906020019062000061929190620000c6565b5080600190805190602001906200007a929190620000c6565b50505033600760006101000a81548173ffffffffffffffffffffffffffffffffffffffff021916908373ffffffffffffffffffffffffffffffffffffffff1602179055505050620003cb565b828054620000d490620002f0565b90600052602060002090601f016020900481019282620000f8576000855562000144565b82601f106200011357805160ff191683800117855562000144565b8280016001018555821562000144579182015b828111156200014357825182559160200191906001019062000126565b5b50905062000153919062000157565b5090565b5b808211156200017257600081600090555060010162000158565b5090565b60006200018d620001878462000284565b6200025b565b905082815260208101848484011115620001a657600080fd5b620001b3848285620002ba565b509392505050565b600082601f830112620001cd57600080fd5b8151620001df84826020860162000176565b91505092915050565b60008060408385031215620001fc57600080fd5b600083015167ffffffffffffffff8111156200021757600080fd5b6200022585828601620001bb565b925050602083015167ffffffffffffffff8111156200024357600080fd5b6200025185828601620001bb565b9150509250929050565b6000620002676200027a565b905062000275828262000326565b919050565b6000604051905090565b600067ffffffffffffffff821115620002a257620002a16200038b565b5b620002ad82620003ba565b9050602081019050919050565b60005b83811015620002da578082015181840152602081019050620002bd565b83811115620002ea576000848401525b50505050565b600060028204905060018216806200030957607f821691505b6020821081141562000320576200031f6200035c565b5b50919050565b6200033182620003ba565b810181811067ffffffffffffffff821117156200035357620003526200038b565b5b80604052505050565b7f4e487b7100000000000000000000000000000000000000000000000000000000600052602260045260246000fd5b7f4e487b7100000000000000000000000000000000000000000000000000000000600052604160045260246000fd5b6000601f19601f8301169050919050565b6140de80620003db6000396000f3fe6080604052600436106101805760003560e01c806370a08231116100d1578063b88d4fde1161008a578063d85d3d2711610064578063d85d3d271461059c578063dc2f8744146105d9578063e2b73bb41461061c578063e985e9c51461065957610180565b8063b88d4fde146104f9578063c87b56dd14610522578063cf27ab071461055f57610180565b806370a08231146103cf5780638da5cb5b1461040c57806395d89b4114610437578063a22cb46514610462578063a82173f31461048b578063b69ef8a8146104ce57610180565b8063235b6ea11161013e57806355a2ba681161011857806355a2ba68146103225780635f7696211461034b5780636352211e146103765780636e553f65146103b357610180565b8063235b6ea1146102a557806323b872dd146102d057806342842e0e146102f957610180565b8062f714ce1461018557806301ffc9a7146101ae578063046c8fd9146101eb57806306fdde0314610214578063081812fc1461023f578063095ea7b31461027c575b600080fd5b34801561019157600080fd5b506101ac60048036038101906101a79190612fe7565b610696565b005b3480156101ba57600080fd5b506101d560048036038101906101d09190612e9f565b61080a565b6040516101e29190613537565b60405180910390f35b3480156101f757600080fd5b50610212600480360381019061020d9190612d67565b6108ec565b005b34801561022057600080fd5b50610229610af2565b6040516102369190613552565b60405180910390f35b34801561024b57600080fd5b5061026660048036038101906102619190612f95565b610b84565b60405161027391906133b5565b60405180910390f35b34801561028857600080fd5b506102a3600480360381019061029e9190612d2b565b610bca565b005b3480156102b157600080fd5b506102ba610ce2565b6040516102c79190613794565b60405180910390f35b3480156102dc57600080fd5b506102f760048036038101906102f29190612c25565b610ce8565b005b34801561030557600080fd5b50610320600480360381019061031b9190612c25565b610d48565b005b34801561032e57600080fd5b5061034960048036038101906103449190612ef1565b610d68565b005b34801561035757600080fd5b506103606111e7565b60405161036d9190613794565b60405180910390f35b34801561038257600080fd5b5061039d60048036038101906103989190612f95565b6111ed565b6040516103aa91906133b5565b60405180910390f35b6103cd60048036038101906103c89190613023565b61129f565b005b3480156103db57600080fd5b506103f660048036038101906103f19190612bc0565b611384565b6040516104039190613794565b60405180910390f35b34801561041857600080fd5b5061042161143c565b60405161042e91906133b5565b60405180910390f35b34801561044357600080fd5b5061044c611462565b6040516104599190613552565b60405180910390f35b34801561046e57600080fd5b5061048960048036038101906104849190612cef565b6114f4565b005b34801561049757600080fd5b506104b260048036038101906104ad9190612f95565b61150a565b6040516104c597969594939291906134b3565b60405180910390f35b3480156104da57600080fd5b506104e3611734565b6040516104f09190613794565b60405180910390f35b34801561050557600080fd5b50610520600480360381019061051b9190612c74565b61173a565b005b34801561052e57600080fd5b5061054960048036038101906105449190612f95565b61179c565b6040516105569190613552565b60405180910390f35b34801561056b57600080fd5b5061058660048036038101906105819190612e76565b6118af565b60405161059391906133b5565b60405180910390f35b3480156105a857600080fd5b506105c360048036038101906105be9190612f54565b6118e2565b6040516105d09190613794565b60405180910390f35b3480156105e557600080fd5b5061060060048036038101906105fb9190612f95565b611918565b60405161061397969594939291906134b3565b60405180910390f35b34801561062857600080fd5b50610643600480360381019061063e9190612e76565b611b32565b60405161065091906133b5565b60405180910390f35b34801561066557600080fd5b50610680600480360381019061067b9190612be9565b611b65565b60405161068d9190613537565b60405180910390f35b600760009054906101000a900473ffffffffffffffffffffffffffffffffffffffff1673ffffffffffffffffffffffffffffffffffffffff163373ffffffffffffffffffffffffffffffffffffffff1614610726576040517f08c379a000000000000000000000000000000000000000000000000000000000815260040161071d906135f4565b60405180910390fd5b60085482111561076b576040517f08c379a000000000000000000000000000000000000000000000000000000000815260040161076290613654565b60405180910390fd5b8073ffffffffffffffffffffffffffffffffffffffff166108fc839081150290604051600060405180830381858888f193505050501580156107b1573d6000803e3d6000fd5b5081600860008282546107c49190613900565b925050819055507ffda3a3e0e1479b43cb1c701f7576187f4c4ad80768d627387e00184302f7d88e3382846040516107fe939291906133d0565b60405180910390a15050565b60007f80ac58cd000000000000000000000000000000000000000000000000000000007bffffffffffffffffffffffffffffffffffffffffffffffffffffffff1916827bffffffffffffffffffffffffffffffffffffffffffffffffffffffff191614806108d557507f5b5e139f000000000000000000000000000000000000000000000000000000007bffffffffffffffffffffffffffffffffffffffffffffffffffffffff1916827bffffffffffffffffffffffffffffffffffffffffffffffffffffffff1916145b806108e557506108e482611bf9565b5b9050919050565b60006108f8600b611c63565b905060006040518060e001604052803373ffffffffffffffffffffffffffffffffffffffff1681526020018381526020018881526020018781526020018673ffffffffffffffffffffffffffffffffffffffff1681526020018581526020018481525090506109678989611c71565b600f81908060018154018082558091505060019003906000526020600020906007020160009091909190915060008201518160000160006101000a81548173ffffffffffffffffffffffffffffffffffffffff021916908373ffffffffffffffffffffffffffffffffffffffff160217905550602082015181600101556040820151816002019080519060200190610a0092919061297b565b506060820151816003015560808201518160040160006101000a81548173ffffffffffffffffffffffffffffffffffffffff021916908373ffffffffffffffffffffffffffffffffffffffff16021790555060a0820151816005019080519060200190610a6e92919061297b565b5060c0820151816006019080519060200190610a8b92919061297b565b505050813373ffffffffffffffffffffffffffffffffffffffff167f68ef91a94999d783b289417eda61214f3143d3d84ce820fe730e2d7943debaa788604051610ad59190613794565b60405180910390a3610ae7600b611c8f565b505050505050505050565b606060008054610b0190613a4e565b80601f0160208091040260200160405190810160405280929190818152602001828054610b2d90613a4e565b8015610b7a5780601f10610b4f57610100808354040283529160200191610b7a565b820191906000526020600020905b815481529060010190602001808311610b5d57829003601f168201915b5050505050905090565b6000610b8f82611ca5565b6004600083815260200190815260200160002060009054906101000a900473ffffffffffffffffffffffffffffffffffffffff169050919050565b6000610bd5826111ed565b90508073ffffffffffffffffffffffffffffffffffffffff168373ffffffffffffffffffffffffffffffffffffffff161415610c46576040517f08c379a0000000000000000000000000000000000000000000000000000000008152600401610c3d90613734565b60405180910390fd5b8073ffffffffffffffffffffffffffffffffffffffff16610c65611cf0565b73ffffffffffffffffffffffffffffffffffffffff161480610c945750610c9381610c8e611cf0565b611b65565b5b610cd3576040517f08c379a0000000000000000000000000000000000000000000000000000000008152600401610cca906136d4565b60405180910390fd5b610cdd8383611cf8565b505050565b600c5481565b610cf9610cf3611cf0565b82611db1565b610d38576040517f08c379a0000000000000000000000000000000000000000000000000000000008152600401610d2f90613754565b60405180910390fd5b610d43838383611e46565b505050565b610d638383836040518060200160405280600081525061173a565b505050565b6000600e60008381526020019081526020016000206040518060e00160405290816000820160009054906101000a900473ffffffffffffffffffffffffffffffffffffffff1673ffffffffffffffffffffffffffffffffffffffff1673ffffffffffffffffffffffffffffffffffffffff16815260200160018201548152602001600282018054610df890613a4e565b80601f0160208091040260200160405190810160405280929190818152602001828054610e2490613a4e565b8015610e715780601f10610e4657610100808354040283529160200191610e71565b820191906000526020600020905b815481529060010190602001808311610e5457829003601f168201915b50505050508152602001600382015481526020016004820160009054906101000a900473ffffffffffffffffffffffffffffffffffffffff1673ffffffffffffffffffffffffffffffffffffffff1673ffffffffffffffffffffffffffffffffffffffff168152602001600582018054610eea90613a4e565b80601f0160208091040260200160405190810160405280929190818152602001828054610f1690613a4e565b8015610f635780601f10610f3857610100808354040283529160200191610f63565b820191906000526020600020905b815481529060010190602001808311610f4657829003601f168201915b50505050508152602001600682018054610f7c90613a4e565b80601f0160208091040260200160405190810160405280929190818152602001828054610fa890613a4e565b8015610ff55780601f10610fca57610100808354040283529160200191610ff5565b820191906000526020600020905b815481529060010190602001808311610fd857829003601f168201915b505050505081525050905082816060015114611046576040517f08c379a000000000000000000000000000000000000000000000000000000000815260040161103d90613774565b60405180910390fd5b60008573ffffffffffffffffffffffffffffffffffffffff166370a08231306040518263ffffffff1660e01b815260040161108191906133b5565b60206040518083038186803b15801561109957600080fd5b505afa1580156110ad573d6000803e3d6000fd5b505050506040513d601f19601f820116820180604052508101906110d19190612fbe565b905080841115611116576040517f08c379a000000000000000000000000000000000000000000000000000000000815260040161110d906136b4565b60405180910390fd5b8573ffffffffffffffffffffffffffffffffffffffff1663a9059cbb86866040518363ffffffff1660e01b815260040161115192919061348a565b602060405180830381600087803b15801561116b57600080fd5b505af115801561117f573d6000803e3d6000fd5b505050506040513d601f19601f820116820180604052508101906111a39190612e4d565b507ffda3a3e0e1479b43cb1c701f7576187f4c4ad80768d627387e00184302f7d88e3386866040516111d793929190613407565b60405180910390a1505050505050565b600d5481565b6000806002600084815260200190815260200160002060009054906101000a900473ffffffffffffffffffffffffffffffffffffffff169050600073ffffffffffffffffffffffffffffffffffffffff168173ffffffffffffffffffffffffffffffffffffffff161415611296576040517f08c379a000000000000000000000000000000000000000000000000000000000815260040161128d90613714565b60405180910390fd5b80915050919050565b6000670de0b6b3a76400009050808310156112ef576040517f08c379a00000000000000000000000000000000000000000000000000000000081526004016112e6906135d4565b60405180910390fd5b8173ffffffffffffffffffffffffffffffffffffffff166323b872dd3330866040518463ffffffff1660e01b815260040161132c93929190613407565b602060405180830381600087803b15801561134657600080fd5b505af115801561135a573d6000803e3d6000fd5b505050506040513d601f19601f8201168201806040525081019061137e9190612e4d565b50505050565b60008073ffffffffffffffffffffffffffffffffffffffff168273ffffffffffffffffffffffffffffffffffffffff1614156113f5576040517f08c379a00000000000000000000000000000000000000000000000000000000081526004016113ec90613674565b60405180910390fd5b600360008373ffffffffffffffffffffffffffffffffffffffff1673ffffffffffffffffffffffffffffffffffffffff168152602001908152602001600020549050919050565b600760009054906101000a900473ffffffffffffffffffffffffffffffffffffffff1681565b60606001805461147190613a4e565b80601f016020809104026020016040519081016040528092919081815260200182805461149d90613a4e565b80156114ea5780601f106114bf576101008083540402835291602001916114ea565b820191906000526020600020905b8154815290600101906020018083116114cd57829003601f168201915b5050505050905090565b6115066114ff611cf0565b83836120ad565b5050565b600f818154811061151a57600080fd5b90600052602060002090600702016000915090508060000160009054906101000a900473ffffffffffffffffffffffffffffffffffffffff169080600101549080600201805461156990613a4e565b80601f016020809104026020016040519081016040528092919081815260200182805461159590613a4e565b80156115e25780601f106115b7576101008083540402835291602001916115e2565b820191906000526020600020905b8154815290600101906020018083116115c557829003601f168201915b5050505050908060030154908060040160009054906101000a900473ffffffffffffffffffffffffffffffffffffffff169080600501805461162390613a4e565b80601f016020809104026020016040519081016040528092919081815260200182805461164f90613a4e565b801561169c5780601f106116715761010080835404028352916020019161169c565b820191906000526020600020905b81548152906001019060200180831161167f57829003601f168201915b5050505050908060060180546116b190613a4e565b80601f01602080910402602001604051908101604052809291908181526020018280546116dd90613a4e565b801561172a5780601f106116ff5761010080835404028352916020019161172a565b820191906000526020600020905b81548152906001019060200180831161170d57829003601f168201915b5050505050905087565b60085481565b61174b611745611cf0565b83611db1565b61178a576040517f08c379a000000000000000000000000000000000000000000000000000000000815260040161178190613754565b60405180910390fd5b6117968484848461221a565b50505050565b60606117a782611ca5565b60006006600084815260200190815260200160002080546117c790613a4e565b80601f01602080910402602001604051908101604052809291908181526020018280546117f390613a4e565b80156118405780601f1061181557610100808354040283529160200191611840565b820191906000526020600020905b81548152906001019060200180831161182357829003601f168201915b505050505090506000611851612276565b90506000815114156118675781925050506118aa565b60008251111561189c578082604051602001611884929190613391565b604051602081830303815290604052925050506118aa565b6118a58461228d565b925050505b919050565b60096020528060005260406000206000915054906101000a900473ffffffffffffffffffffffffffffffffffffffff1681565b6000806118ef600b611c63565b90506118fb33826122f5565b61190581846124cf565b61190f600b611c8f565b80915050919050565b600e6020528060005260406000206000915090508060000160009054906101000a900473ffffffffffffffffffffffffffffffffffffffff169080600101549080600201805461196790613a4e565b80601f016020809104026020016040519081016040528092919081815260200182805461199390613a4e565b80156119e05780601f106119b5576101008083540402835291602001916119e0565b820191906000526020600020905b8154815290600101906020018083116119c357829003601f168201915b5050505050908060030154908060040160009054906101000a900473ffffffffffffffffffffffffffffffffffffffff1690806005018054611a2190613a4e565b80601f0160208091040260200160405190810160405280929190818152602001828054611a4d90613a4e565b8015611a9a5780601f10611a6f57610100808354040283529160200191611a9a565b820191906000526020600020905b815481529060010190602001808311611a7d57829003601f168201915b505050505090806006018054611aaf90613a4e565b80601f0160208091040260200160405190810160405280929190818152602001828054611adb90613a4e565b8015611b285780601f10611afd57610100808354040283529160200191611b28565b820191906000526020600020905b815481529060010190602001808311611b0b57829003601f168201915b5050505050905087565b600a6020528060005260406000206000915054906101000a900473ffffffffffffffffffffffffffffffffffffffff1681565b6000600560008473ffffffffffffffffffffffffffffffffffffffff1673ffffffffffffffffffffffffffffffffffffffff16815260200190815260200160002060008373ffffffffffffffffffffffffffffffffffffffff1673ffffffffffffffffffffffffffffffffffffffff16815260200190815260200160002060009054906101000a900460ff16905092915050565b60007f01ffc9a7000000000000000000000000000000000000000000000000000000007bffffffffffffffffffffffffffffffffffffffffffffffffffffffff1916827bffffffffffffffffffffffffffffffffffffffffffffffffffffffff1916149050919050565b600081600001549050919050565b611c8b828260405180602001604052806000815250612543565b5050565b6001816000016000828254019250508190555050565b611cae8161259e565b611ced576040517f08c379a0000000000000000000000000000000000000000000000000000000008152600401611ce490613714565b60405180910390fd5b50565b600033905090565b816004600083815260200190815260200160002060006101000a81548173ffffffffffffffffffffffffffffffffffffffff021916908373ffffffffffffffffffffffffffffffffffffffff160217905550808273ffffffffffffffffffffffffffffffffffffffff16611d6b836111ed565b73ffffffffffffffffffffffffffffffffffffffff167f8c5be1e5ebec7d5bd14f71427d1e84f3dd0314c0f7b2291e5b200ac8c7c3b92560405160405180910390a45050565b600080611dbd836111ed565b90508073ffffffffffffffffffffffffffffffffffffffff168473ffffffffffffffffffffffffffffffffffffffff161480611dff5750611dfe8185611b65565b5b80611e3d57508373ffffffffffffffffffffffffffffffffffffffff16611e2584610b84565b73ffffffffffffffffffffffffffffffffffffffff16145b91505092915050565b8273ffffffffffffffffffffffffffffffffffffffff16611e66826111ed565b73ffffffffffffffffffffffffffffffffffffffff1614611ebc576040517f08c379a0000000000000000000000000000000000000000000000000000000008152600401611eb390613594565b60405180910390fd5b600073ffffffffffffffffffffffffffffffffffffffff168273ffffffffffffffffffffffffffffffffffffffff161415611f2c576040517f08c379a0000000000000000000000000000000000000000000000000000000008152600401611f2390613614565b60405180910390fd5b611f3783838361260a565b611f42600082611cf8565b6001600360008573ffffffffffffffffffffffffffffffffffffffff1673ffffffffffffffffffffffffffffffffffffffff1681526020019081526020016000206000828254611f929190613900565b925050819055506001600360008473ffffffffffffffffffffffffffffffffffffffff1673ffffffffffffffffffffffffffffffffffffffff1681526020019081526020016000206000828254611fe99190613879565b92505081905550816002600083815260200190815260200160002060006101000a81548173ffffffffffffffffffffffffffffffffffffffff021916908373ffffffffffffffffffffffffffffffffffffffff160217905550808273ffffffffffffffffffffffffffffffffffffffff168473ffffffffffffffffffffffffffffffffffffffff167fddf252ad1be2c89b69c2b068fc378daa952ba7f163c4a11628f55a4df523b3ef60405160405180910390a46120a883838361260f565b505050565b8173ffffffffffffffffffffffffffffffffffffffff168373ffffffffffffffffffffffffffffffffffffffff16141561211c576040517f08c379a000000000000000000000000000000000000000000000000000000000815260040161211390613634565b60405180910390fd5b80600560008573ffffffffffffffffffffffffffffffffffffffff1673ffffffffffffffffffffffffffffffffffffffff16815260200190815260200160002060008473ffffffffffffffffffffffffffffffffffffffff1673ffffffffffffffffffffffffffffffffffffffff16815260200190815260200160002060006101000a81548160ff0219169083151502179055508173ffffffffffffffffffffffffffffffffffffffff168373ffffffffffffffffffffffffffffffffffffffff167f17307eab39ab6107e8899845ad3d59bd9653f200f220920489ca2b5937696c318360405161220d9190613537565b60405180910390a3505050565b612225848484611e46565b61223184848484612614565b612270576040517f08c379a000000000000000000000000000000000000000000000000000000000815260040161226790613574565b60405180910390fd5b50505050565b606060405180602001604052806000815250905090565b606061229882611ca5565b60006122a2612276565b905060008151116122c257604051806020016040528060008152506122ed565b806122cc846127ab565b6040516020016122dd929190613391565b6040516020818303038152906040525b915050919050565b600073ffffffffffffffffffffffffffffffffffffffff168273ffffffffffffffffffffffffffffffffffffffff161415612365576040517f08c379a000000000000000000000000000000000000000000000000000000000815260040161235c906136f4565b60405180910390fd5b61236e8161259e565b156123ae576040517f08c379a00000000000000000000000000000000000000000000000000000000081526004016123a5906135b4565b60405180910390fd5b6123ba6000838361260a565b6001600360008473ffffffffffffffffffffffffffffffffffffffff1673ffffffffffffffffffffffffffffffffffffffff168152602001908152602001600020600082825461240a9190613879565b92505081905550816002600083815260200190815260200160002060006101000a81548173ffffffffffffffffffffffffffffffffffffffff021916908373ffffffffffffffffffffffffffffffffffffffff160217905550808273ffffffffffffffffffffffffffffffffffffffff16600073ffffffffffffffffffffffffffffffffffffffff167fddf252ad1be2c89b69c2b068fc378daa952ba7f163c4a11628f55a4df523b3ef60405160405180910390a46124cb6000838361260f565b5050565b6124d88261259e565b612517576040517f08c379a000000000000000000000000000000000000000000000000000000000815260040161250e90613694565b60405180910390fd5b8060066000848152602001908152602001600020908051906020019061253e92919061297b565b505050565b61254d83836122f5565b61255a6000848484612614565b612599576040517f08c379a000000000000000000000000000000000000000000000000000000000815260040161259090613574565b60405180910390fd5b505050565b60008073ffffffffffffffffffffffffffffffffffffffff166002600084815260200190815260200160002060009054906101000a900473ffffffffffffffffffffffffffffffffffffffff1673ffffffffffffffffffffffffffffffffffffffff1614159050919050565b505050565b505050565b60006126358473ffffffffffffffffffffffffffffffffffffffff16612958565b1561279e578373ffffffffffffffffffffffffffffffffffffffff1663150b7a0261265e611cf0565b8786866040518563ffffffff1660e01b8152600401612680949392919061343e565b602060405180830381600087803b15801561269a57600080fd5b505af19250505080156126cb57506040513d601f19601f820116820180604052508101906126c89190612ec8565b60015b61274e573d80600081146126fb576040519150601f19603f3d011682016040523d82523d6000602084013e612700565b606091505b50600081511415612746576040517f08c379a000000000000000000000000000000000000000000000000000000000815260040161273d90613574565b60405180910390fd5b805181602001fd5b63150b7a0260e01b7bffffffffffffffffffffffffffffffffffffffffffffffffffffffff1916817bffffffffffffffffffffffffffffffffffffffffffffffffffffffff1916149150506127a3565b600190505b949350505050565b606060008214156127f3576040518060400160405280600181526020017f30000000000000000000000000000000000000000000000000000000000000008152509050612953565b600082905060005b6000821461282557808061280e90613ab1565b915050600a8261281e91906138cf565b91506127fb565b60008167ffffffffffffffff811115612867577f4e487b7100000000000000000000000000000000000000000000000000000000600052604160045260246000fd5b6040519080825280601f01601f1916602001820160405280156128995781602001600182028036833780820191505090505b5090505b6000851461294c576001826128b29190613900565b9150600a856128c19190613afa565b60306128cd9190613879565b60f81b818381518110612909577f4e487b7100000000000000000000000000000000000000000000000000000000600052603260045260246000fd5b60200101907effffffffffffffffffffffffffffffffffffffffffffffffffffffffffffff1916908160001a905350600a8561294591906138cf565b945061289d565b8093505050505b919050565b6000808273ffffffffffffffffffffffffffffffffffffffff163b119050919050565b82805461298790613a4e565b90600052602060002090601f0160209004810192826129a957600085556129f0565b82601f106129c257805160ff19168380011785556129f0565b828001600101855582156129f0579182015b828111156129ef5782518255916020019190600101906129d4565b5b5090506129fd9190612a01565b5090565b5b80821115612a1a576000816000905550600101612a02565b5090565b6000612a31612a2c846137d4565b6137af565b905082815260208101848484011115612a4957600080fd5b612a54848285613a0c565b509392505050565b6000612a6f612a6a84613805565b6137af565b905082815260208101848484011115612a8757600080fd5b612a92848285613a0c565b509392505050565b600081359050612aa981614007565b92915050565b600081359050612abe8161401e565b92915050565b600081359050612ad381614035565b92915050565b600081519050612ae881614035565b92915050565b600081359050612afd8161404c565b92915050565b600081359050612b1281614063565b92915050565b600081519050612b2781614063565b92915050565b600082601f830112612b3e57600080fd5b8135612b4e848260208601612a1e565b91505092915050565b600081359050612b668161407a565b92915050565b600082601f830112612b7d57600080fd5b8135612b8d848260208601612a5c565b91505092915050565b600081359050612ba581614091565b92915050565b600081519050612bba81614091565b92915050565b600060208284031215612bd257600080fd5b6000612be084828501612a9a565b91505092915050565b60008060408385031215612bfc57600080fd5b6000612c0a85828601612a9a565b9250506020612c1b85828601612a9a565b9150509250929050565b600080600060608486031215612c3a57600080fd5b6000612c4886828701612a9a565b9350506020612c5986828701612a9a565b9250506040612c6a86828701612b96565b9150509250925092565b60008060008060808587031215612c8a57600080fd5b6000612c9887828801612a9a565b9450506020612ca987828801612a9a565b9350506040612cba87828801612b96565b925050606085013567ffffffffffffffff811115612cd757600080fd5b612ce387828801612b2d565b91505092959194509250565b60008060408385031215612d0257600080fd5b6000612d1085828601612a9a565b9250506020612d2185828601612ac4565b9150509250929050565b60008060408385031215612d3e57600080fd5b6000612d4c85828601612a9a565b9250506020612d5d85828601612b96565b9150509250929050565b600080600080600080600060e0888a031215612d8257600080fd5b6000612d908a828b01612a9a565b9750506020612da18a828b01612b96565b965050604088013567ffffffffffffffff811115612dbe57600080fd5b612dca8a828b01612b6c565b9550506060612ddb8a828b01612b96565b9450506080612dec8a828b01612a9a565b93505060a088013567ffffffffffffffff811115612e0957600080fd5b612e158a828b01612b6c565b92505060c088013567ffffffffffffffff811115612e3257600080fd5b612e3e8a828b01612b6c565b91505092959891949750929550565b600060208284031215612e5f57600080fd5b6000612e6d84828501612ad9565b91505092915050565b600060208284031215612e8857600080fd5b6000612e9684828501612aee565b91505092915050565b600060208284031215612eb157600080fd5b6000612ebf84828501612b03565b91505092915050565b600060208284031215612eda57600080fd5b6000612ee884828501612b18565b91505092915050565b60008060008060808587031215612f0757600080fd5b6000612f1587828801612b57565b9450506020612f2687828801612a9a565b9350506040612f3787828801612b96565b9250506060612f4887828801612b96565b91505092959194509250565b600060208284031215612f6657600080fd5b600082013567ffffffffffffffff811115612f8057600080fd5b612f8c84828501612b6c565b91505092915050565b600060208284031215612fa757600080fd5b6000612fb584828501612b96565b91505092915050565b600060208284031215612fd057600080fd5b6000612fde84828501612bab565b91505092915050565b60008060408385031215612ffa57600080fd5b600061300885828601612b96565b925050602061301985828601612aaf565b9150509250929050565b6000806040838503121561303657600080fd5b600061304485828601612b96565b925050602061305585828601612b57565b9150509250929050565b613068816139d6565b82525050565b61307781613934565b82525050565b61308681613958565b82525050565b600061309782613836565b6130a1818561384c565b93506130b1818560208601613a1b565b6130ba81613be7565b840191505092915050565b60006130d082613841565b6130da818561385d565b93506130ea818560208601613a1b565b6130f381613be7565b840191505092915050565b600061310982613841565b613113818561386e565b9350613123818560208601613a1b565b80840191505092915050565b600061313c60328361385d565b915061314782613bf8565b604082019050919050565b600061315f60258361385d565b915061316a82613c47565b604082019050919050565b6000613182601c8361385d565b915061318d82613c96565b602082019050919050565b60006131a5601f8361385d565b91506131b082613cbf565b602082019050919050565b60006131c8601d8361385d565b91506131d382613ce8565b602082019050919050565b60006131eb60248361385d565b91506131f682613d11565b604082019050919050565b600061320e60198361385d565b915061321982613d60565b602082019050919050565b600061323160128361385d565b915061323c82613d89565b602082019050919050565b600061325460298361385d565b915061325f82613db2565b604082019050919050565b6000613277602e8361385d565b915061328282613e01565b604082019050919050565b600061329a600e8361385d565b91506132a582613e50565b602082019050919050565b60006132bd603e8361385d565b91506132c882613e79565b604082019050919050565b60006132e060208361385d565b91506132eb82613ec8565b602082019050919050565b600061330360188361385d565b915061330e82613ef1565b602082019050919050565b600061332660218361385d565b915061333182613f1a565b604082019050919050565b6000613349602e8361385d565b915061335482613f69565b604082019050919050565b600061336c602d8361385d565b915061337782613fb8565b604082019050919050565b61338b816139cc565b82525050565b600061339d82856130fe565b91506133a982846130fe565b91508190509392505050565b60006020820190506133ca600083018461306e565b92915050565b60006060820190506133e5600083018661306e565b6133f2602083018561305f565b6133ff6040830184613382565b949350505050565b600060608201905061341c600083018661306e565b613429602083018561306e565b6134366040830184613382565b949350505050565b6000608082019050613453600083018761306e565b613460602083018661306e565b61346d6040830185613382565b818103606083015261347f818461308c565b905095945050505050565b600060408201905061349f600083018561306e565b6134ac6020830184613382565b9392505050565b600060e0820190506134c8600083018a61306e565b6134d56020830189613382565b81810360408301526134e781886130c5565b90506134f66060830187613382565b613503608083018661306e565b81810360a083015261351581856130c5565b905081810360c083015261352981846130c5565b905098975050505050505050565b600060208201905061354c600083018461307d565b92915050565b6000602082019050818103600083015261356c81846130c5565b905092915050565b6000602082019050818103600083015261358d8161312f565b9050919050565b600060208201905081810360008301526135ad81613152565b9050919050565b600060208201905081810360008301526135cd81613175565b9050919050565b600060208201905081810360008301526135ed81613198565b9050919050565b6000602082019050818103600083015261360d816131bb565b9050919050565b6000602082019050818103600083015261362d816131de565b9050919050565b6000602082019050818103600083015261364d81613201565b9050919050565b6000602082019050818103600083015261366d81613224565b9050919050565b6000602082019050818103600083015261368d81613247565b9050919050565b600060208201905081810360008301526136ad8161326a565b9050919050565b600060208201905081810360008301526136cd8161328d565b9050919050565b600060208201905081810360008301526136ed816132b0565b9050919050565b6000602082019050818103600083015261370d816132d3565b9050919050565b6000602082019050818103600083015261372d816132f6565b9050919050565b6000602082019050818103600083015261374d81613319565b9050919050565b6000602082019050818103600083015261376d8161333c565b9050919050565b6000602082019050818103600083015261378d8161335f565b9050919050565b60006020820190506137a96000830184613382565b92915050565b60006137b96137ca565b90506137c58282613a80565b919050565b6000604051905090565b600067ffffffffffffffff8211156137ef576137ee613bb8565b5b6137f882613be7565b9050602081019050919050565b600067ffffffffffffffff8211156138205761381f613bb8565b5b61382982613be7565b9050602081019050919050565b600081519050919050565b600081519050919050565b600082825260208201905092915050565b600082825260208201905092915050565b600081905092915050565b6000613884826139cc565b915061388f836139cc565b9250827fffffffffffffffffffffffffffffffffffffffffffffffffffffffffffffffff038211156138c4576138c3613b2b565b5b828201905092915050565b60006138da826139cc565b91506138e5836139cc565b9250826138f5576138f4613b5a565b5b828204905092915050565b600061390b826139cc565b9150613916836139cc565b92508282101561392957613928613b2b565b5b828203905092915050565b600061393f826139ac565b9050919050565b6000613951826139ac565b9050919050565b60008115159050919050565b6000819050919050565b60007fffffffff0000000000000000000000000000000000000000000000000000000082169050919050565b60006139a582613934565b9050919050565b600073ffffffffffffffffffffffffffffffffffffffff82169050919050565b6000819050919050565b60006139e1826139e8565b9050919050565b60006139f3826139fa565b9050919050565b6000613a05826139ac565b9050919050565b82818337600083830152505050565b60005b83811015613a39578082015181840152602081019050613a1e565b83811115613a48576000848401525b50505050565b60006002820490506001821680613a6657607f821691505b60208210811415613a7a57613a79613b89565b5b50919050565b613a8982613be7565b810181811067ffffffffffffffff82111715613aa857613aa7613bb8565b5b80604052505050565b6000613abc826139cc565b91507fffffffffffffffffffffffffffffffffffffffffffffffffffffffffffffffff821415613aef57613aee613b2b565b5b600182019050919050565b6000613b05826139cc565b9150613b10836139cc565b925082613b2057613b1f613b5a565b5b828206905092915050565b7f4e487b7100000000000000000000000000000000000000000000000000000000600052601160045260246000fd5b7f4e487b7100000000000000000000000000000000000000000000000000000000600052601260045260246000fd5b7f4e487b7100000000000000000000000000000000000000000000000000000000600052602260045260246000fd5b7f4e487b7100000000000000000000000000000000000000000000000000000000600052604160045260246000fd5b6000601f19601f8301169050919050565b7f4552433732313a207472616e7366657220746f206e6f6e20455243373231526560008201527f63656976657220696d706c656d656e7465720000000000000000000000000000602082015250565b7f4552433732313a207472616e736665722066726f6d20696e636f72726563742060008201527f6f776e6572000000000000000000000000000000000000000000000000000000602082015250565b7f4552433732313a20746f6b656e20616c7265616479206d696e74656400000000600082015250565b7f416d6f756e74206c657373207468616e206d696e696d756d20616d6f756e7400600082015250565b7f4f6e6c79206f776e65722063616e2077697468647261772066756e6473000000600082015250565b7f4552433732313a207472616e7366657220746f20746865207a65726f2061646460008201527f7265737300000000000000000000000000000000000000000000000000000000602082015250565b7f4552433732313a20617070726f766520746f2063616c6c657200000000000000600082015250565b7f496e73756666696369656e742066756e64730000000000000000000000000000600082015250565b7f4552433732313a2061646472657373207a65726f206973206e6f74206120766160008201527f6c6964206f776e65720000000000000000000000000000000000000000000000602082015250565b7f45524337323155524953746f726167653a2055524920736574206f66206e6f6e60008201527f6578697374656e7420746f6b656e000000000000000000000000000000000000602082015250565b7f62616c616e6365206973206c6f77000000000000000000000000000000000000600082015250565b7f4552433732313a20617070726f76652063616c6c6572206973206e6f7420746f60008201527f6b656e206f776e6572206e6f7220617070726f76656420666f7220616c6c0000602082015250565b7f4552433732313a206d696e7420746f20746865207a65726f2061646472657373600082015250565b7f4552433732313a20696e76616c696420746f6b656e2049440000000000000000600082015250565b7f4552433732313a20617070726f76616c20746f2063757272656e74206f776e6560008201527f7200000000000000000000000000000000000000000000000000000000000000602082015250565b7f4552433732313a2063616c6c6572206973206e6f7420746f6b656e206f776e6560008201527f72206e6f7220617070726f766564000000000000000000000000000000000000602082015250565b7f52657175657374656420616d6f756e74206e6f74207468652073616d6520617360008201527f20626f756e74792076616c756500000000000000000000000000000000000000602082015250565b61401081613934565b811461401b57600080fd5b50565b61402781613946565b811461403257600080fd5b50565b61403e81613958565b811461404957600080fd5b50565b61405581613964565b811461406057600080fd5b50565b61406c8161396e565b811461407757600080fd5b50565b6140838161399a565b811461408e57600080fd5b50565b61409a816139cc565b81146140a557600080fd5b5056fea2646970667358221220f68a9180667413b2cefc052393537a84dba896eed8119a72587cc2dff2bd72b064736f6c63430008020033",
  "linkReferences": {},
  "deployedLinkReferences": {}
}