{
  "_format": "hh-sol-artifact-1",
  "contractName": "MembershipNFT",
  "sourceName": "contracts/MembershipNFT.sol",
  "abi": [
    {
      "inputs": [
        {
          "internalType": "string",
          "name": "_name",
          "type": "string"
        },
        {
          "internalType": "string",
          "name": "_symbol",
          "type": "string"
        }
      ],
      "stateMutability": "nonpayable",
      "type": "constructor"
    },
    {
      "anonymous": false,
      "inputs": [
        {
          "indexed": true,
          "internalType": "address",
          "name": "owner",
          "type": "address"
        },
        {
          "indexed": true,
          "internalType": "address",
          "name": "approved",
          "type": "address"
        },
        {
          "indexed": true,
          "internalType": "uint256",
          "name": "tokenId",
          "type": "uint256"
        }
      ],
      "name": "Approval",
      "type": "event"
    },
    {
      "anonymous": false,
      "inputs": [
        {
          "indexed": true,
          "internalType": "address",
          "name": "owner",
          "type": "address"
        },
        {
          "indexed": true,
          "internalType": "address",
          "name": "operator",
          "type": "address"
        },
        {
          "indexed": false,
          "internalType": "bool",
          "name": "approved",
          "type": "bool"
        }
      ],
      "name": "ApprovalForAll",
      "type": "event"
    },
    {
      "anonymous": false,
      "inputs": [
        {
          "indexed": true,
          "internalType": "address",
          "name": "from",
          "type": "address"
        },
        {
          "indexed": true,
          "internalType": "address",
          "name": "to",
          "type": "address"
        },
        {
          "indexed": true,
          "internalType": "uint256",
          "name": "tokenId",
          "type": "uint256"
        }
      ],
      "name": "Transfer",
      "type": "event"
    },
    {
      "inputs": [],
      "name": "_meritPoints",
      "outputs": [
        {
          "internalType": "uint256",
          "name": "",
          "type": "uint256"
        }
      ],
      "stateMutability": "view",
      "type": "function"
    },
    {
      "inputs": [],
      "name": "_price",
      "outputs": [
        {
          "internalType": "uint256",
          "name": "",
          "type": "uint256"
        }
      ],
      "stateMutability": "view",
      "type": "function"
    },
    {
      "inputs": [
        {
          "internalType": "address",
          "name": "to",
          "type": "address"
        },
        {
          "internalType": "uint256",
          "name": "tokenId",
          "type": "uint256"
        }
      ],
      "name": "approve",
      "outputs": [],
      "stateMutability": "nonpayable",
      "type": "function"
    },
    {
      "inputs": [
        {
          "internalType": "address",
          "name": "owner",
          "type": "address"
        }
      ],
      "name": "balanceOf",
      "outputs": [
        {
          "internalType": "uint256",
          "name": "",
          "type": "uint256"
        }
      ],
      "stateMutability": "view",
      "type": "function"
    },
    {
      "inputs": [
        {
          "internalType": "uint256",
          "name": "tokenId",
          "type": "uint256"
        }
      ],
      "name": "getApproved",
      "outputs": [
        {
          "internalType": "address",
          "name": "",
          "type": "address"
        }
      ],
      "stateMutability": "view",
      "type": "function"
    },
    {
      "inputs": [
        {
          "internalType": "address",
          "name": "owner",
          "type": "address"
        },
        {
          "internalType": "address",
          "name": "operator",
          "type": "address"
        }
      ],
      "name": "isApprovedForAll",
      "outputs": [
        {
          "internalType": "bool",
          "name": "",
          "type": "bool"
        }
      ],
      "stateMutability": "view",
      "type": "function"
    },
    {
      "inputs": [],
      "name": "maxTokenIds",
      "outputs": [
        {
          "internalType": "uint256",
          "name": "",
          "type": "uint256"
        }
      ],
      "stateMutability": "view",
      "type": "function"
    },
    {
      "inputs": [
        {
          "internalType": "string",
          "name": "tokenURI",
          "type": "string"
        }
      ],
      "name": "mint",
      "outputs": [
        {
          "internalType": "uint256",
          "name": "",
          "type": "uint256"
        }
      ],
      "stateMutability": "nonpayable",
      "type": "function"
    },
    {
      "inputs": [],
      "name": "name",
      "outputs": [
        {
          "internalType": "string",
          "name": "",
          "type": "string"
        }
      ],
      "stateMutability": "view",
      "type": "function"
    },
    {
      "inputs": [
        {
          "internalType": "uint256",
          "name": "tokenId",
          "type": "uint256"
        }
      ],
      "name": "ownerOf",
      "outputs": [
        {
          "internalType": "address",
          "name": "",
          "type": "address"
        }
      ],
      "stateMutability": "view",
      "type": "function"
    },
    {
      "inputs": [
        {
          "internalType": "address",
          "name": "from",
          "type": "address"
        },
        {
          "internalType": "address",
          "name": "to",
          "type": "address"
        },
        {
          "internalType": "uint256",
          "name": "tokenId",
          "type": "uint256"
        }
      ],
      "name": "safeTransferFrom",
      "outputs": [],
      "stateMutability": "nonpayable",
      "type": "function"
    },
    {
      "inputs": [
        {
          "internalType": "address",
          "name": "from",
          "type": "address"
        },
        {
          "internalType": "address",
          "name": "to",
          "type": "address"
        },
        {
          "internalType": "uint256",
          "name": "tokenId",
          "type": "uint256"
        },
        {
          "internalType": "bytes",
          "name": "data",
          "type": "bytes"
        }
      ],
      "name": "safeTransferFrom",
      "outputs": [],
      "stateMutability": "nonpayable",
      "type": "function"
    },
    {
      "inputs": [
        {
          "internalType": "address",
          "name": "operator",
          "type": "address"
        },
        {
          "internalType": "bool",
          "name": "approved",
          "type": "bool"
        }
      ],
      "name": "setApprovalForAll",
      "outputs": [],
      "stateMutability": "nonpayable",
      "type": "function"
    },
    {
      "inputs": [
        {
          "internalType": "bytes4",
          "name": "interfaceId",
          "type": "bytes4"
        }
      ],
      "name": "supportsInterface",
      "outputs": [
        {
          "internalType": "bool",
          "name": "",
          "type": "bool"
        }
      ],
      "stateMutability": "view",
      "type": "function"
    },
    {
      "inputs": [],
      "name": "symbol",
      "outputs": [
        {
          "internalType": "string",
          "name": "",
          "type": "string"
        }
      ],
      "stateMutability": "view",
      "type": "function"
    },
    {
      "inputs": [
        {
          "internalType": "uint256",
          "name": "tokenId",
          "type": "uint256"
        }
      ],
      "name": "tokenURI",
      "outputs": [
        {
          "internalType": "string",
          "name": "",
          "type": "string"
        }
      ],
      "stateMutability": "view",
      "type": "function"
    },
    {
      "inputs": [
        {
          "internalType": "address",
          "name": "from",
          "type": "address"
        },
        {
          "internalType": "address",
          "name": "to",
          "type": "address"
        },
        {
          "internalType": "uint256",
          "name": "tokenId",
          "type": "uint256"
        }
      ],
      "name": "transferFrom",
      "outputs": [],
      "stateMutability": "nonpayable",
      "type": "function"
    }
  ],
  "bytecode": "0x6080604052662386f26fc100006008556127106009553480156200002257600080fd5b5060405162002c8438038062002c848339818101604052810190620000489190620001a8565b818181600090805190602001906200006292919062000086565b5080600190805190602001906200007b92919062000086565b50505050506200038b565b8280546200009490620002b0565b90600052602060002090601f016020900481019282620000b8576000855562000104565b82601f10620000d357805160ff191683800117855562000104565b8280016001018555821562000104579182015b8281111562000103578251825591602001919060010190620000e6565b5b50905062000113919062000117565b5090565b5b808211156200013257600081600090555060010162000118565b5090565b60006200014d620001478462000244565b6200021b565b9050828152602081018484840111156200016657600080fd5b620001738482856200027a565b509392505050565b600082601f8301126200018d57600080fd5b81516200019f84826020860162000136565b91505092915050565b60008060408385031215620001bc57600080fd5b600083015167ffffffffffffffff811115620001d757600080fd5b620001e5858286016200017b565b925050602083015167ffffffffffffffff8111156200020357600080fd5b62000211858286016200017b565b9150509250929050565b6000620002276200023a565b9050620002358282620002e6565b919050565b6000604051905090565b600067ffffffffffffffff8211156200026257620002616200034b565b5b6200026d826200037a565b9050602081019050919050565b60005b838110156200029a5780820151818401526020810190506200027d565b83811115620002aa576000848401525b50505050565b60006002820490506001821680620002c957607f821691505b60208210811415620002e057620002df6200031c565b5b50919050565b620002f1826200037a565b810181811067ffffffffffffffff821117156200031357620003126200034b565b5b80604052505050565b7f4e487b7100000000000000000000000000000000000000000000000000000000600052602260045260246000fd5b7f4e487b7100000000000000000000000000000000000000000000000000000000600052604160045260246000fd5b6000601f19601f8301169050919050565b6128e9806200039b6000396000f3fe608060405234801561001057600080fd5b506004361061010b5760003560e01c80635f769621116100a2578063a22cb46511610071578063a22cb465146102ba578063b88d4fde146102d6578063c87b56dd146102f2578063d85d3d2714610322578063e985e9c5146103525761010b565b80635f7696211461021e5780636352211e1461023c57806370a082311461026c57806395d89b411461029c5761010b565b8063235b6ea1116100de578063235b6ea1146101aa57806323b872dd146101c85780633de81425146101e457806342842e0e146102025761010b565b806301ffc9a71461011057806306fdde0314610140578063081812fc1461015e578063095ea7b31461018e575b600080fd5b61012a60048036038101906101259190611bc3565b610382565b6040516101379190611f7e565b60405180910390f35b610148610464565b6040516101559190611f99565b60405180910390f35b61017860048036038101906101739190611c56565b6104f6565b6040516101859190611f17565b60405180910390f35b6101a860048036038101906101a39190611b87565b61053c565b005b6101b2610654565b6040516101bf919061213b565b60405180910390f35b6101e260048036038101906101dd9190611a81565b61065a565b005b6101ec6106ba565b6040516101f9919061213b565b60405180910390f35b61021c60048036038101906102179190611a81565b6106c0565b005b6102266106e0565b604051610233919061213b565b60405180910390f35b61025660048036038101906102519190611c56565b6106e6565b6040516102639190611f17565b60405180910390f35b61028660048036038101906102819190611a1c565b610798565b604051610293919061213b565b60405180910390f35b6102a4610850565b6040516102b19190611f99565b60405180910390f35b6102d460048036038101906102cf9190611b4b565b6108e2565b005b6102f060048036038101906102eb9190611ad0565b6108f8565b005b61030c60048036038101906103079190611c56565b61095a565b6040516103199190611f99565b60405180910390f35b61033c60048036038101906103379190611c15565b610a6d565b604051610349919061213b565b60405180910390f35b61036c60048036038101906103679190611a45565b610aa3565b6040516103799190611f7e565b60405180910390f35b60007f80ac58cd000000000000000000000000000000000000000000000000000000007bffffffffffffffffffffffffffffffffffffffffffffffffffffffff1916827bffffffffffffffffffffffffffffffffffffffffffffffffffffffff1916148061044d57507f5b5e139f000000000000000000000000000000000000000000000000000000007bffffffffffffffffffffffffffffffffffffffffffffffffffffffff1916827bffffffffffffffffffffffffffffffffffffffffffffffffffffffff1916145b8061045d575061045c82610b37565b5b9050919050565b60606000805461047390612391565b80601f016020809104026020016040519081016040528092919081815260200182805461049f90612391565b80156104ec5780601f106104c1576101008083540402835291602001916104ec565b820191906000526020600020905b8154815290600101906020018083116104cf57829003601f168201915b5050505050905090565b600061050182610ba1565b6004600083815260200190815260200160002060009054906101000a900473ffffffffffffffffffffffffffffffffffffffff169050919050565b6000610547826106e6565b90508073ffffffffffffffffffffffffffffffffffffffff168373ffffffffffffffffffffffffffffffffffffffff1614156105b8576040517f08c379a00000000000000000000000000000000000000000000000000000000081526004016105af906120fb565b60405180910390fd5b8073ffffffffffffffffffffffffffffffffffffffff166105d7610bec565b73ffffffffffffffffffffffffffffffffffffffff161480610606575061060581610600610bec565b610aa3565b5b610645576040517f08c379a000000000000000000000000000000000000000000000000000000000815260040161063c9061209b565b60405180910390fd5b61064f8383610bf4565b505050565b60085481565b61066b610665610bec565b82610cad565b6106aa576040517f08c379a00000000000000000000000000000000000000000000000000000000081526004016106a19061211b565b60405180910390fd5b6106b5838383610d42565b505050565b600a5481565b6106db838383604051806020016040528060008152506108f8565b505050565b60095481565b6000806002600084815260200190815260200160002060009054906101000a900473ffffffffffffffffffffffffffffffffffffffff169050600073ffffffffffffffffffffffffffffffffffffffff168173ffffffffffffffffffffffffffffffffffffffff16141561078f576040517f08c379a0000000000000000000000000000000000000000000000000000000008152600401610786906120db565b60405180910390fd5b80915050919050565b60008073ffffffffffffffffffffffffffffffffffffffff168273ffffffffffffffffffffffffffffffffffffffff161415610809576040517f08c379a00000000000000000000000000000000000000000000000000000000081526004016108009061205b565b60405180910390fd5b600360008373ffffffffffffffffffffffffffffffffffffffff1673ffffffffffffffffffffffffffffffffffffffff168152602001908152602001600020549050919050565b60606001805461085f90612391565b80601f016020809104026020016040519081016040528092919081815260200182805461088b90612391565b80156108d85780601f106108ad576101008083540402835291602001916108d8565b820191906000526020600020905b8154815290600101906020018083116108bb57829003601f168201915b5050505050905090565b6108f46108ed610bec565b8383610fa9565b5050565b610909610903610bec565b83610cad565b610948576040517f08c379a000000000000000000000000000000000000000000000000000000000815260040161093f9061211b565b60405180910390fd5b61095484848484611116565b50505050565b606061096582610ba1565b600060066000848152602001908152602001600020805461098590612391565b80601f01602080910402602001604051908101604052809291908181526020018280546109b190612391565b80156109fe5780601f106109d3576101008083540402835291602001916109fe565b820191906000526020600020905b8154815290600101906020018083116109e157829003601f168201915b505050505090506000610a0f611172565b9050600081511415610a25578192505050610a68565b600082511115610a5a578082604051602001610a42929190611ef3565b60405160208183030381529060405292505050610a68565b610a6384611189565b925050505b919050565b600080610a7a60076111f1565b9050610a8633826111ff565b610a9081846113d9565b610a9a600761144d565b80915050919050565b6000600560008473ffffffffffffffffffffffffffffffffffffffff1673ffffffffffffffffffffffffffffffffffffffff16815260200190815260200160002060008373ffffffffffffffffffffffffffffffffffffffff1673ffffffffffffffffffffffffffffffffffffffff16815260200190815260200160002060009054906101000a900460ff16905092915050565b60007f01ffc9a7000000000000000000000000000000000000000000000000000000007bffffffffffffffffffffffffffffffffffffffffffffffffffffffff1916827bffffffffffffffffffffffffffffffffffffffffffffffffffffffff1916149050919050565b610baa81611463565b610be9576040517f08c379a0000000000000000000000000000000000000000000000000000000008152600401610be0906120db565b60405180910390fd5b50565b600033905090565b816004600083815260200190815260200160002060006101000a81548173ffffffffffffffffffffffffffffffffffffffff021916908373ffffffffffffffffffffffffffffffffffffffff160217905550808273ffffffffffffffffffffffffffffffffffffffff16610c67836106e6565b73ffffffffffffffffffffffffffffffffffffffff167f8c5be1e5ebec7d5bd14f71427d1e84f3dd0314c0f7b2291e5b200ac8c7c3b92560405160405180910390a45050565b600080610cb9836106e6565b90508073ffffffffffffffffffffffffffffffffffffffff168473ffffffffffffffffffffffffffffffffffffffff161480610cfb5750610cfa8185610aa3565b5b80610d3957508373ffffffffffffffffffffffffffffffffffffffff16610d21846104f6565b73ffffffffffffffffffffffffffffffffffffffff16145b91505092915050565b8273ffffffffffffffffffffffffffffffffffffffff16610d62826106e6565b73ffffffffffffffffffffffffffffffffffffffff1614610db8576040517f08c379a0000000000000000000000000000000000000000000000000000000008152600401610daf90611fdb565b60405180910390fd5b600073ffffffffffffffffffffffffffffffffffffffff168273ffffffffffffffffffffffffffffffffffffffff161415610e28576040517f08c379a0000000000000000000000000000000000000000000000000000000008152600401610e1f9061201b565b60405180910390fd5b610e338383836114cf565b610e3e600082610bf4565b6001600360008573ffffffffffffffffffffffffffffffffffffffff1673ffffffffffffffffffffffffffffffffffffffff1681526020019081526020016000206000828254610e8e91906122a7565b925050819055506001600360008473ffffffffffffffffffffffffffffffffffffffff1673ffffffffffffffffffffffffffffffffffffffff1681526020019081526020016000206000828254610ee59190612220565b92505081905550816002600083815260200190815260200160002060006101000a81548173ffffffffffffffffffffffffffffffffffffffff021916908373ffffffffffffffffffffffffffffffffffffffff160217905550808273ffffffffffffffffffffffffffffffffffffffff168473ffffffffffffffffffffffffffffffffffffffff167fddf252ad1be2c89b69c2b068fc378daa952ba7f163c4a11628f55a4df523b3ef60405160405180910390a4610fa48383836114d4565b505050565b8173ffffffffffffffffffffffffffffffffffffffff168373ffffffffffffffffffffffffffffffffffffffff161415611018576040517f08c379a000000000000000000000000000000000000000000000000000000000815260040161100f9061203b565b60405180910390fd5b80600560008573ffffffffffffffffffffffffffffffffffffffff1673ffffffffffffffffffffffffffffffffffffffff16815260200190815260200160002060008473ffffffffffffffffffffffffffffffffffffffff1673ffffffffffffffffffffffffffffffffffffffff16815260200190815260200160002060006101000a81548160ff0219169083151502179055508173ffffffffffffffffffffffffffffffffffffffff168373ffffffffffffffffffffffffffffffffffffffff167f17307eab39ab6107e8899845ad3d59bd9653f200f220920489ca2b5937696c31836040516111099190611f7e565b60405180910390a3505050565b611121848484610d42565b61112d848484846114d9565b61116c576040517f08c379a000000000000000000000000000000000000000000000000000000000815260040161116390611fbb565b60405180910390fd5b50505050565b606060405180602001604052806000815250905090565b606061119482610ba1565b600061119e611172565b905060008151116111be57604051806020016040528060008152506111e9565b806111c884611670565b6040516020016111d9929190611ef3565b6040516020818303038152906040525b915050919050565b600081600001549050919050565b600073ffffffffffffffffffffffffffffffffffffffff168273ffffffffffffffffffffffffffffffffffffffff16141561126f576040517f08c379a0000000000000000000000000000000000000000000000000000000008152600401611266906120bb565b60405180910390fd5b61127881611463565b156112b8576040517f08c379a00000000000000000000000000000000000000000000000000000000081526004016112af90611ffb565b60405180910390fd5b6112c4600083836114cf565b6001600360008473ffffffffffffffffffffffffffffffffffffffff1673ffffffffffffffffffffffffffffffffffffffff16815260200190815260200160002060008282546113149190612220565b92505081905550816002600083815260200190815260200160002060006101000a81548173ffffffffffffffffffffffffffffffffffffffff021916908373ffffffffffffffffffffffffffffffffffffffff160217905550808273ffffffffffffffffffffffffffffffffffffffff16600073ffffffffffffffffffffffffffffffffffffffff167fddf252ad1be2c89b69c2b068fc378daa952ba7f163c4a11628f55a4df523b3ef60405160405180910390a46113d5600083836114d4565b5050565b6113e282611463565b611421576040517f08c379a00000000000000000000000000000000000000000000000000000000081526004016114189061207b565b60405180910390fd5b80600660008481526020019081526020016000209080519060200190611448929190611840565b505050565b6001816000016000828254019250508190555050565b60008073ffffffffffffffffffffffffffffffffffffffff166002600084815260200190815260200160002060009054906101000a900473ffffffffffffffffffffffffffffffffffffffff1673ffffffffffffffffffffffffffffffffffffffff1614159050919050565b505050565b505050565b60006114fa8473ffffffffffffffffffffffffffffffffffffffff1661181d565b15611663578373ffffffffffffffffffffffffffffffffffffffff1663150b7a02611523610bec565b8786866040518563ffffffff1660e01b81526004016115459493929190611f32565b602060405180830381600087803b15801561155f57600080fd5b505af192505050801561159057506040513d601f19601f8201168201806040525081019061158d9190611bec565b60015b611613573d80600081146115c0576040519150601f19603f3d011682016040523d82523d6000602084013e6115c5565b606091505b5060008151141561160b576040517f08c379a000000000000000000000000000000000000000000000000000000000815260040161160290611fbb565b60405180910390fd5b805181602001fd5b63150b7a0260e01b7bffffffffffffffffffffffffffffffffffffffffffffffffffffffff1916817bffffffffffffffffffffffffffffffffffffffffffffffffffffffff191614915050611668565b600190505b949350505050565b606060008214156116b8576040518060400160405280600181526020017f30000000000000000000000000000000000000000000000000000000000000008152509050611818565b600082905060005b600082146116ea5780806116d3906123f4565b915050600a826116e39190612276565b91506116c0565b60008167ffffffffffffffff81111561172c577f4e487b7100000000000000000000000000000000000000000000000000000000600052604160045260246000fd5b6040519080825280601f01601f19166020018201604052801561175e5781602001600182028036833780820191505090505b5090505b600085146118115760018261177791906122a7565b9150600a85611786919061243d565b60306117929190612220565b60f81b8183815181106117ce577f4e487b7100000000000000000000000000000000000000000000000000000000600052603260045260246000fd5b60200101907effffffffffffffffffffffffffffffffffffffffffffffffffffffffffffff1916908160001a905350600a8561180a9190612276565b9450611762565b8093505050505b919050565b6000808273ffffffffffffffffffffffffffffffffffffffff163b119050919050565b82805461184c90612391565b90600052602060002090601f01602090048101928261186e57600085556118b5565b82601f1061188757805160ff19168380011785556118b5565b828001600101855582156118b5579182015b828111156118b4578251825591602001919060010190611899565b5b5090506118c291906118c6565b5090565b5b808211156118df5760008160009055506001016118c7565b5090565b60006118f66118f18461217b565b612156565b90508281526020810184848401111561190e57600080fd5b61191984828561234f565b509392505050565b600061193461192f846121ac565b612156565b90508281526020810184848401111561194c57600080fd5b61195784828561234f565b509392505050565b60008135905061196e81612857565b92915050565b6000813590506119838161286e565b92915050565b60008135905061199881612885565b92915050565b6000815190506119ad81612885565b92915050565b600082601f8301126119c457600080fd5b81356119d48482602086016118e3565b91505092915050565b600082601f8301126119ee57600080fd5b81356119fe848260208601611921565b91505092915050565b600081359050611a168161289c565b92915050565b600060208284031215611a2e57600080fd5b6000611a3c8482850161195f565b91505092915050565b60008060408385031215611a5857600080fd5b6000611a668582860161195f565b9250506020611a778582860161195f565b9150509250929050565b600080600060608486031215611a9657600080fd5b6000611aa48682870161195f565b9350506020611ab58682870161195f565b9250506040611ac686828701611a07565b9150509250925092565b60008060008060808587031215611ae657600080fd5b6000611af48782880161195f565b9450506020611b058782880161195f565b9350506040611b1687828801611a07565b925050606085013567ffffffffffffffff811115611b3357600080fd5b611b3f878288016119b3565b91505092959194509250565b60008060408385031215611b5e57600080fd5b6000611b6c8582860161195f565b9250506020611b7d85828601611974565b9150509250929050565b60008060408385031215611b9a57600080fd5b6000611ba88582860161195f565b9250506020611bb985828601611a07565b9150509250929050565b600060208284031215611bd557600080fd5b6000611be384828501611989565b91505092915050565b600060208284031215611bfe57600080fd5b6000611c0c8482850161199e565b91505092915050565b600060208284031215611c2757600080fd5b600082013567ffffffffffffffff811115611c4157600080fd5b611c4d848285016119dd565b91505092915050565b600060208284031215611c6857600080fd5b6000611c7684828501611a07565b91505092915050565b611c88816122db565b82525050565b611c97816122ed565b82525050565b6000611ca8826121dd565b611cb281856121f3565b9350611cc281856020860161235e565b611ccb8161252a565b840191505092915050565b6000611ce1826121e8565b611ceb8185612204565b9350611cfb81856020860161235e565b611d048161252a565b840191505092915050565b6000611d1a826121e8565b611d248185612215565b9350611d3481856020860161235e565b80840191505092915050565b6000611d4d603283612204565b9150611d588261253b565b604082019050919050565b6000611d70602583612204565b9150611d7b8261258a565b604082019050919050565b6000611d93601c83612204565b9150611d9e826125d9565b602082019050919050565b6000611db6602483612204565b9150611dc182612602565b604082019050919050565b6000611dd9601983612204565b9150611de482612651565b602082019050919050565b6000611dfc602983612204565b9150611e078261267a565b604082019050919050565b6000611e1f602e83612204565b9150611e2a826126c9565b604082019050919050565b6000611e42603e83612204565b9150611e4d82612718565b604082019050919050565b6000611e65602083612204565b9150611e7082612767565b602082019050919050565b6000611e88601883612204565b9150611e9382612790565b602082019050919050565b6000611eab602183612204565b9150611eb6826127b9565b604082019050919050565b6000611ece602e83612204565b9150611ed982612808565b604082019050919050565b611eed81612345565b82525050565b6000611eff8285611d0f565b9150611f0b8284611d0f565b91508190509392505050565b6000602082019050611f2c6000830184611c7f565b92915050565b6000608082019050611f476000830187611c7f565b611f546020830186611c7f565b611f616040830185611ee4565b8181036060830152611f738184611c9d565b905095945050505050565b6000602082019050611f936000830184611c8e565b92915050565b60006020820190508181036000830152611fb38184611cd6565b905092915050565b60006020820190508181036000830152611fd481611d40565b9050919050565b60006020820190508181036000830152611ff481611d63565b9050919050565b6000602082019050818103600083015261201481611d86565b9050919050565b6000602082019050818103600083015261203481611da9565b9050919050565b6000602082019050818103600083015261205481611dcc565b9050919050565b6000602082019050818103600083015261207481611def565b9050919050565b6000602082019050818103600083015261209481611e12565b9050919050565b600060208201905081810360008301526120b481611e35565b9050919050565b600060208201905081810360008301526120d481611e58565b9050919050565b600060208201905081810360008301526120f481611e7b565b9050919050565b6000602082019050818103600083015261211481611e9e565b9050919050565b6000602082019050818103600083015261213481611ec1565b9050919050565b60006020820190506121506000830184611ee4565b92915050565b6000612160612171565b905061216c82826123c3565b919050565b6000604051905090565b600067ffffffffffffffff821115612196576121956124fb565b5b61219f8261252a565b9050602081019050919050565b600067ffffffffffffffff8211156121c7576121c66124fb565b5b6121d08261252a565b9050602081019050919050565b600081519050919050565b600081519050919050565b600082825260208201905092915050565b600082825260208201905092915050565b600081905092915050565b600061222b82612345565b915061223683612345565b9250827fffffffffffffffffffffffffffffffffffffffffffffffffffffffffffffffff0382111561226b5761226a61246e565b5b828201905092915050565b600061228182612345565b915061228c83612345565b92508261229c5761229b61249d565b5b828204905092915050565b60006122b282612345565b91506122bd83612345565b9250828210156122d0576122cf61246e565b5b828203905092915050565b60006122e682612325565b9050919050565b60008115159050919050565b60007fffffffff0000000000000000000000000000000000000000000000000000000082169050919050565b600073ffffffffffffffffffffffffffffffffffffffff82169050919050565b6000819050919050565b82818337600083830152505050565b60005b8381101561237c578082015181840152602081019050612361565b8381111561238b576000848401525b50505050565b600060028204905060018216806123a957607f821691505b602082108114156123bd576123bc6124cc565b5b50919050565b6123cc8261252a565b810181811067ffffffffffffffff821117156123eb576123ea6124fb565b5b80604052505050565b60006123ff82612345565b91507fffffffffffffffffffffffffffffffffffffffffffffffffffffffffffffffff8214156124325761243161246e565b5b600182019050919050565b600061244882612345565b915061245383612345565b9250826124635761246261249d565b5b828206905092915050565b7f4e487b7100000000000000000000000000000000000000000000000000000000600052601160045260246000fd5b7f4e487b7100000000000000000000000000000000000000000000000000000000600052601260045260246000fd5b7f4e487b7100000000000000000000000000000000000000000000000000000000600052602260045260246000fd5b7f4e487b7100000000000000000000000000000000000000000000000000000000600052604160045260246000fd5b6000601f19601f8301169050919050565b7f4552433732313a207472616e7366657220746f206e6f6e20455243373231526560008201527f63656976657220696d706c656d656e7465720000000000000000000000000000602082015250565b7f4552433732313a207472616e736665722066726f6d20696e636f72726563742060008201527f6f776e6572000000000000000000000000000000000000000000000000000000602082015250565b7f4552433732313a20746f6b656e20616c7265616479206d696e74656400000000600082015250565b7f4552433732313a207472616e7366657220746f20746865207a65726f2061646460008201527f7265737300000000000000000000000000000000000000000000000000000000602082015250565b7f4552433732313a20617070726f766520746f2063616c6c657200000000000000600082015250565b7f4552433732313a2061646472657373207a65726f206973206e6f74206120766160008201527f6c6964206f776e65720000000000000000000000000000000000000000000000602082015250565b7f45524337323155524953746f726167653a2055524920736574206f66206e6f6e60008201527f6578697374656e7420746f6b656e000000000000000000000000000000000000602082015250565b7f4552433732313a20617070726f76652063616c6c6572206973206e6f7420746f60008201527f6b656e206f776e6572206e6f7220617070726f76656420666f7220616c6c0000602082015250565b7f4552433732313a206d696e7420746f20746865207a65726f2061646472657373600082015250565b7f4552433732313a20696e76616c696420746f6b656e2049440000000000000000600082015250565b7f4552433732313a20617070726f76616c20746f2063757272656e74206f776e6560008201527f7200000000000000000000000000000000000000000000000000000000000000602082015250565b7f4552433732313a2063616c6c6572206973206e6f7420746f6b656e206f776e6560008201527f72206e6f7220617070726f766564000000000000000000000000000000000000602082015250565b612860816122db565b811461286b57600080fd5b50565b612877816122ed565b811461288257600080fd5b50565b61288e816122f9565b811461289957600080fd5b50565b6128a581612345565b81146128b057600080fd5b5056fea2646970667358221220b1c0b2a58794161283759699f0615fdbd7a1f2a00743f4e651c1898f86a7ea5a64736f6c63430008020033",
  "linkReferences": {},
  "deployedLinkReferences": {}
}